:020000040800F2
:10000000600600206D0100087501000877010008F6
:10001000790100087B0100087D0100080000000054
:100020000000000000000000000000007F01000848
:10003000810100080000000083010008850100081C
:100040008701000887010008870100088701000870
:100050008701000887010008870100088701000860
:100060008701000887010008870100088701000850
:100070008701000887010008870100088701000840
:100080008701000887010008870100088701000830
:100090008701000887010008870100088701000820
:1000A0008701000887010008870100088701000810
:1000B0008701000887010008870100088701000800
:1000C00087010008870100088701000887010008F0
:1000D00087010008870100088701000887010008E0
:1000E00087010008870100088701000800F002F876
:1000F00000F02CF80AA090E8000C82448344AAF196
:100100000107DA4501D100F021F8AFF2090EBAE893
:100110000F0013F0010F18BFFB1A43F0010318473B
:100120005002000060020000002300240025002689
:10013000103A28BF78C1FBD8520728BF30C148BF4A
:100140000B6070471FB51FBD10B510BD00F031F832
:100150001146FFF7F7FF00F0A5F800F04FF803B4E1
:10016000FFF7F2FF03BC00F053F800000948804796
:1001700009480047FEE7FEE7FEE7FEE7FEE7FEE789
:10018000FEE7FEE7FEE7FEE704480549054A064BA1
:1001900070470000A1020008ED0000086000002088
:1001A0006006002060020020600200207047704757
:1001B0007047754600F028F8AE460500694653467C
:1001C00020F00700854618B020B5FFF7DDFFBDE839
:1001D00020404FF000064FF000074FF000084FF0AE
:1001E000000B21F00701AC46ACE8C009ACE8C0093F
:1001F000ACE8C009ACE8C0098D4670470446AFF3CF
:1002000000802046FFF7ABFF004870470000002049
:1002100001491820ABBEFEE726000200704700002F
:10022000002004490860481503490860400103495B
:10023000C86070470C0801400C0C014000100140E0
:100240002020054908600020044908604FF48040E0
:100250000349C860704700000C0801400C0C0140C5
:100260000010014020200449086000010349086093
:1002700000200349C86070470C0801400C0C014085
:100280000010014001B505E0002000E0401CB0F581
:10029000487FFBD300994A1E00920029F4D108BD83
:1002A0007047000010B564242C48806940F00400B9
:1002B0002A4988610846806940F00800886108463C
:1002C000806940F0100088612548006820F47000C3
:1002D000234908600846006840F400100860204880
:1002E0000C30006840F020001D490C3108601D48AA
:1002F000006820F0F0001B4908600846006840F0E4
:100300002000086017480830006840F40070154964
:10031000083108601448406820F070601249486055
:100320000846406840F0007048600846C06840F4E5
:100330008040C8600EE0FFF773FF0C48FFF7A2FF94
:10034000FFF77EFF0948FFF79DFFFFF78BFF074888
:10035000FFF798FF002CEED1002010BD00100240E6
:1003600000080140040C01400010014040420F0011
:10037000800300080000002060060000280100083B
:04000005080000ED02
:00000001FF
