:020000040800F2
:1000000050180020951D0008AB020008AD02000842
:10001000B1020008B5020008B902000800000000A3
:10002000000000000000000000000000BD02000809
:10003000BF02000800000000C1020008C30200085F
:10004000AF1D0008AF1D0008AF1D0008AF1D000860
:10005000AF1D0008AF1D0008AF1D0008AF1D000850
:10006000AF1D0008AF1D0008AF1D0008AF1D000840
:10007000AF1D0008AF1D0008AF1D0008AF1D000830
:10008000AF1D0008AF1D0008AF1D0008AF1D000820
:10009000AF1D0008AF1D0008AF1D0008AF1D000810
:1000A000AF1D0008AF1D0008AF1D0008AF1D000800
:1000B000AF1D0008AF1D0008AF1D0008AF1D0008F0
:1000C000AF1D0008AF1D0008AF1D0008AF1D0008E0
:1000D000AF1D0008AF1D0008AF1D0008AF1D0008D0
:1000E000AF1D0008AF1D0008AF1D0008AF1D0008C0
:1000F000AF1D0008AF1D0008AF1D0008AF1D0008B0
:10010000AF1D0008AF1D0008AF1D0008AF1D00089F
:10011000AF1D0008AF1D0008AF1D0008AF1D00088F
:10012000AF1D0008AF1D0008AF1D0008AF1D00087F
:1001300000F002F800F05CF80AA090E8000C82449D
:100140008344AAF10107DA4501D100F051F8AFF27A
:10015000090EBAE80F0013F0010F18BFFB1A43F0A5
:10016000010318473C3800005C3800000A444FF097
:10017000000C10F8013B13F0070408BF10F8014B06
:100180001D1108BF10F8015B641E05D010F8016B4B
:10019000641E01F8016BF9D113F0080F1EBF10F8AF
:1001A000014BAD1C0C1B09D16D1E58BF01F801CBD2
:1001B000FAD505E014F8016B01F8016B6D1EF9D555
:1001C0009142D6D37047000000230024002500266A
:1001D000103A28BF78C1FBD8520728BF30C148BFAA
:1001E0000B6070471FB502F0F8F91FBD10B510BDC8
:1001F00002F050FA1146FFF7F5FF00F023F802F085
:100200006EFA03B4FFF7F2FF03BC02F075FA0000C8
:100210000B49D1F800C04A685CF8043B10681844E8
:1002200042F8040B8C4528BFA1F1DC0C8A4228BFA0
:10023000A1F1DC02C1F800C04A6020F00040704724
:10024000E811002001F036FD01F09EFD01F09AFC5E
:10025000002001F055FC00212E2001F09DFB002123
:10026000272001F099FB0021084601F095FB0021B1
:10027000084601F091FB0021072001F08DFB0021D1
:10028000072001F089FB0021084601F085FB0021D1
:10029000FF2001F081FB00F005F900212F2001F083
:1002A0007BFB01E000F0FEF8FCE7704700BFFEE7D3
:1002B00000BFFEE700BFFEE700BFFEE770477047E4
:1002C000704770470CB50020019000906C480068A2
:1002D00040F480306A49086000BF6948006800F453
:1002E000003000900198401C0190009818B90198C6
:1002F000B0F5A06FF1D16248006800F4003010B191
:100300000120009001E0002000900098012843D1D6
:100310005C48006840F010005A49086008460068D0
:1003200020F0030008600846006840F00200086002
:10033000534840685249486008464068486008464B
:10034000406840F4806048600846406820F47C10B3
:1003500048600846406840F4E81048600846006875
:1003600040F08070086000BF4548006800F00070F1
:100370000028F9D04248406820F003004049486016
:100380000846406840F00200486000BF3C484068B2
:1003900000F00C000828F9D10CBD10B5FFF792FF52
:1003A00010BD10B53648006840F0010034490860BF
:1003B00008464068344908403149486008460068AA
:1003C000324908402E4908600846006820F4802021
:1003D00008600846406820F4FE0048604FF41F00A3
:1003E0008860FFF7DAFF4FF000602949086010BD10
:1003F00010B5002100200022214B5B6803F00C01A6
:1004000021B1042906D0082928D107E0214B224C2C
:10041000236027E01F4B204C236023E0184B5B68D0
:1004200003F47010164B5B6803F48032022303EB75
:10043000904022B9194B4343174C23600DE0104BF9
:100440005B6803F4003323B1144B4343124C236025
:1004500003E0104B4343104C236003E00D4B0E4C64
:10046000236000BF00BF064B5B68C3F303130C4C53
:10047000E15C094B1B68CB40074C236010BD0000BA
:1004800000100240002002400000FFF8FFFFF6FECF
:1004900008ED00E000127A000000002000093D0095
:1004A0000400002008B50120FEA3102214210090B2
:1004B0000A2001F0E3F940F2DC5001F038FC40F290
:1004C000DC5001F034FC08BD08B500203F237F223A
:1004D0000146009000F0B8FC01201023F5A20A218B
:1004E0000090084600F0BBFF4FF47A7001F01FFC4B
:1004F00001203F237F2200210090084600F0A4FC49
:1005000040F2DC5001F013FC08BD08B500203F2389
:100510001A460146009000F097FC01203F237F22FD
:1005200000210090402000F08FFC01203A231A4661
:1005300005210090084600F006FD00203A237A22AB
:1005400005210090442000F0FEFC4FF47A7001F089
:10055000EEFB01203A231A4605210090084600F0E0
:1005600017FD00203A237A2205210090442000F054
:100570000FFD40F2DC5001F0DAFB08BD08B50020A9
:100580003F231A460146009000F05EFC01203F2305
:100590007F2200210090402000F056FC1B23012206
:1005A0001F21084600F048FD1B2300221F215F2069
:1005B00000F042FD4FF47A7001F0B9FB1B230122D9
:1005C0001F21084600F061FD1B2300221F215F2030
:1005D00000F05BFD40F2DC5001F0A9FB08BD0EB558
:1005E00000203F231A460146009000F02DFC012018
:1005F0003F237F2200210090402000F025FC0120B5
:100600003A21009105231F22CDE90110184600F080
:100610006CFD00203A217A220523CDE900210290C9
:100620005F22442000F061FD4FF47A7001F07FFBFF
:1006300001203A21009105231F22CDE9011018461F
:1006400000F08CFD00203A217A220523CDE900211B
:1006500002905F22442000F081FD40F2DC5001F066
:1006600066FB0EBD08B50120082394A20521009069
:10067000002000F0F4FE0120102398A21921009020
:10068000002000F0ECFE4FF47A7001F050FB0120E6
:1006900008239AA205210090002000F0E0FE01202E
:1006A00010239EA219210090002000F0D8FE40F2F5
:1006B000DC5001F03CFB08BD1CB500201F237F224D
:1006C0000146009000F0C0FB012008239BA20021FE
:1006D0000090084600F0C3FE012008210A23A14A29
:1006E000CDE9001010211E2000F0FBFE4FF47A70BF
:1006F00001F01DFB002001F003FA012010239AA253
:1007000000210090084600F0AAFE012010210A23D3
:10071000944ACDE900102021282000F0E2FE40F2AA
:10072000DC5001F004FB002001F0EAF91CBD08B523
:100730000120082396A2002100902D2000F08FFEBA
:10074000012095A3102214210090104601F096F884
:100750004FF47A7001F0EBFA002001F0D1F901209A
:10076000082391A2002100902D2000F078FE0120A6
:100770008FA3182214210090102001F07FF84FF46D
:100780007A7001F0D4FA002001F0BAF901200823B0
:100790008AA2002100902D2000F061FE012084A398
:1007A000202214210090002001F068F84FF47A70A4
:1007B00001F0BDFA002001F0A3F908BD1CB501202D
:1007C000804940238022CDE900100021084601F035
:1007D0008AF84FF47A7001F0AAFA01207A4940238E
:1007E0008022CDE900100021084601F07CF84FF48A
:1007F0007A7001F09CFA0120744940238022CDE9EF
:1008000000100021084601F06EF84FF47A7001F0F4
:100810008EFA1CBD0EB501200F237F22002100900F
:10082000084600F011FB002069A310220146009049
:10083000202001F023F80623012218210A2000F0CD
:10084000FBFB0323012218210A2000F0F5FB0623FD
:10085000012228210A2000F0EFFB03230122282196
:100860000A2000F0E9FB0623012238210A2000F0CB
:10087000E3FB0323012238210A2000F0DDFB0120E5
:10088000102356A219460090142000F0E8FD012024
:1008900053A3102211460090242000F0EFFF012006
:1008A0001023A3E0C4E3B2BBC4DCD7F6CED2B5C4F8
:1008B000CAAB0000424C41434B0000003678383A46
:1008C0006162636465666768696A6B6C6D6E6F70A0
:1008D0007172737475767778797A0000387831366A
:1008E0003A6162636465666768696A6B6C6D6E6FB6
:1008F000707172737475767778797A003678383AD1
:100900004142434445464748494A4B4C4D4E4F505F
:100910005152535455565758595A00003878313669
:100920003A4142434445464748494A4B4C4D4E4F55
:10093000505152535455565758595A003678383AF0
:100940002122232425262728292A2B2C2D2E2F3A15
:100950003B3C3D3E3F405B5D5C5E5F607E7B7D7C03
:1009600000000000D2029649387831363A2122231D
:100970002425262728292A2B2C2D2E2F3A3B3C3D97
:100980003E3F405B5D5C5E5F607E7B7D7C00000087
:100990003136783136000000C8ABB6AFB5E7D7D3F3
:1009A000BCBCCAF5000000003234783234000000CC
:1009B000C8ABB6AFB5E7D7D3000000003332783309
:1009C000320000001400002014040020140800204D
:1009D000CFB5CDB3C9E8D6C300000000412E00005A
:1009E000D2F4C1BFC9E8D6C300000000F5A220219F
:1009F0000090142000F033FD0120F3A310222021E9
:100A00000090242000F03AFF01201023F1A23021B1
:100A10000090142000F023FD0120EFA310223021CC
:100A20000090242000F02AFF01203F237F22002194
:100A30000090084600F087FA01203F2375220F211D
:100A40000090104600F027FA012014217E22102386
:100A5000CDE9002102907A22762000F07FFB012070
:100A60003A217E223E23CDE9002102907A2276208F
:100A700000F074FB0323012218210A2000F005FB7B
:100A800001201F23632210210090142000F0DCF9C4
:100A900000201023AFF2BC0219460090142000F091
:100AA000DEFC0020AFF2C803102211460090242083
:100AB00000F0E4FE01201C237E2217210090762006
:100AC00000F0C2F940F2DC5001F031F903230022BA
:100AD00018210A2000F0D9FA0323012218210A2044
:100AE00000F0AAFA00201F23632210210090142096
:100AF00000F0AAF901201023AFF22012194600904D
:100B0000142000F0ACFC0120AFF22C13102211468F
:100B10000090242000F0B2FE00201C237E2217212A
:100B20000090762000F090F90323012228210A206A
:100B300000F0ABFA01202F23632220210090142023
:100B400000F082F9002010239EA2202100901420A2
:100B500000F085FC00209CA310222021009024207E
:100B600000F08CFE01202A237E2225210090762091
:100B700000F06AF940F2DC5001F0D9F803230022BA
:100B800028210A2000F081FA0323012228210A20CB
:100B900000F052FA00202F2363222021009014201D
:100BA00000F052F90120102386A220210090142089
:100BB00000F055FC012084A3102220210090242065
:100BC00000F05CFE00202A237E2225210090762062
:100BD00000F03AF90323012238210A2000F055FAE7
:100BE00001203F23632230210090142000F02CF9D3
:100BF0000020102377A230210090142000F02FFC59
:100C0000002075A3102230210090242000F036FE31
:100C1000012037237E2232210090762000F014F943
:100C200040F2DC5001F083F80EBD7CB56D4801F058
:100C3000BFFC01200A237F2219460090002000F00B
:100C40002AF901203F231A460B210090184600F094
:100C500022F9012024237F22194600903F2000F032
:100C60001AF90120082360A201460090002000F03C
:100C7000F6FB012008235FA2014600904E2000F001
:100C8000EEFB012008235EA2352100900E2000F02B
:100C9000E6FB012008235CA20D210090412000F01A
:100CA000DEFB0223012219216C2000F0C5F901208E
:100CB000102357A214210090712000F0D0FB0120D6
:100CC000102354A214210090482000F0C8FB0120FA
:100CD000082352A227210090412000F0C0FB0120F0
:100CE000102350A22E210090442000F0B8FB0120D8
:100CF0004E4920233322CDE900101021062000F0B8
:100D0000F2FD00255BE0FFF783FA04460120102185
:100D1000CDE90010E01704EB90708010A4EB800286
:100D200001231421482000F0DCFBFFF771FA0A21AF
:100D300090FBF1F201FB1204012010210346224630
:100D4000CDE900101421502000F0CBFBFFF760FA32
:100D50000A2190FBF1F201FB12040120102103464D
:100D60002246CDE900101421602000F0BAFBFFF705
:100D70004FFA0A2190FBF1F201FB1204012010212D
:100D800003462246CDE900102E21442000F0A9FBA5
:100D9000FFF73EFA0A2190FBF1F201FB1204012059
:100DA000102103462246CDE900102E214C2000F0F0
:100DB00098FB4FF4FA7000F0BAFF681CC5B20F2D13
:100DC000A1DB7CBD422E0000D1D5C9ABC9E8D6C39A
:100DD00000000000432E0000CDF8C2E7C9E8D6C3EA
:100DE0000000000040E20100323031392D30382D52
:100DF000313700005361747572646179000000003E
:100E0000436C6F756479000054454D50000000003C
:100E10004300000033322E3500000000504D322ECA
:100E200035000000393075672F6D3300140C002039
:100E300070B504460D46164632462946204600F057
:100E400000FE00F03BFE70BD2DE9F05F04460D464C
:100E500090469946A8EB0400401C00F0FF0AA9EB5D
:100E60000500401C00F0FF0B00260EE0002708E004
:100E7000AA19D1B2E219D0B20A9A00F0E2FD781CA8
:100E8000C7B25745F4DB701CC6B25E45EEDB00F01E
:100E900015FEBDE8F09F2DE9FF4F85B081468A46DB
:100EA0000020039083460798A0EB09050898A0EB63
:100EB0000A06CDF80890CDF804A0002D01DD012729
:100EC00005E00DB9002702E04FF0FF376D42002E1C
:100ED00002DD4FF0010806E016B94FF0000802E00D
:100EE0004FF0FF387642B54201DD2C4600E0344633
:100EF000002004901EE0019AD1B2029AD0B2129A58
:100F000000F09FFD039828440390B3440398A04247
:100F100005DD0398001B0390029838440290A34516
:100F200004DDABEB040B0198404401900498401C95
:100F300080B20490611C04988842DCDD00F0BEFDA4
:100F400009B0BDE8F08F2DE9F84305460E46174677
:100F50009846089C33463A46314628460094FFF7A7
:100F60009AFF43462A46314628460094FFF793FFEE
:100F700043463A46414628460094FFF78CFF4346D5
:100F80003A46314638460094FFF785FFBDE8F883BE
:100F90002DE9F84304460D4616461F46DDF820802D
:100FA0003B46324629462046CDF80080FFF74CFFED
:100FB000BDE8F8832DE9F04104460D4616461F466C
:100FC000DDF81880EA19D1B2A219D0B2424600F079
:100FD00038FDEA19D1B2A21BD0B2424600F031FD71
:100FE000EA1BD1B2A219D0B2424600F02AFDEA1B98
:100FF000D1B2A21BD0B2424600F023FDAA19D1B251
:10100000E219D0B2424600F01CFDAA19D1B2E21B8F
:10101000D0B2424600F015FDAA1BD1B2E219D0B2FF
:10102000424600F00EFDAA1BD1B2E21BD0B24246EE
:1010300000F007FDBDE8F0812DE9F84F81468A46B2
:1010400090461E46002435467000C0F1030716E0A6
:10105000EBB2E2B251464846CDF80080FFF7AAFF56
:10106000002F04DA042000FB0470871D06E0601BDB
:10107000042101FB007000F10A076D1E641CAC42E4
:10108000E6DD00F01BFDBDE8F88F2DE9F84F824644
:101090008B4691461E46002435467000C0F1030879
:1010A0001DE0274608E0FBB2E2B259465046CDF8B3
:1010B0000090FFF77FFF7F1CAF42F4DDB8F1000F17
:1010C00005DA042000FB048000F1060806E0601B3E
:1010D000042101FB008000F10A086D1E641CAC4273
:1010E000DFDD00F0EBFCBDE8F88F2DE9F84F054699
:1010F0000E4617469846DDE90A9A0C9C43463A4646
:10110000314628460094FFF7C6FE53464A464146FC
:1011100038460094FFF7BFFE33462A4651464846FC
:101120000094FFF7B8FEBDE8F88F02780B780370E3
:101130000A7070472DE9F04105460E46174698465D
:1011400000242C4606E042463946204600F079FC51
:10115000601CC4B2B442F6DDBDE8F0812DE9FF4F5A
:1011600085B0002600279DF818009DF820108842C1
:1011700007DD08A906A8FFF7D8FF07A905A8FFF70C
:10118000D4FF9DF820009DF84C10884207DD08A987
:1011900013A8FFF7CAFF07A912A8FFF7C6FF9DF81B
:1011A00018009DF82010884207DD08A906A8FFF75F
:1011B000BCFF07A905A8FFF7B8FF9DF818009DF828
:1011C0004C10884235D19DF81400039004909DF88E
:1011D0001C009DF81010884203DA9DF81C00049052
:1011E00008E09DF81C009DF80C10884202DD9DF877
:1011F0001C0003909DF848009DF81010884203DA07
:101200009DF84800049008E09DF848009DF80C10F7
:10121000884202DD9DF8480003909DF818209DF853
:101220000C109DF81000149BFFF784FF09B0BDE877
:10123000F08F9DF81C009DF81410A0EB010B9DF899
:1012400020009DF81810401A02909DF848009DF863
:101250001410451A9DF84C009DF81810A0EB0109D8
:101260009DF848009DF81C10A0EB010A9DF84C0069
:101270009DF82010401A01909DF820009DF84C1018
:10128000884202D19DF8208004E09DF82000401E95
:1012900000F0FF089DF8184024E0029896FBF0F05B
:1012A0009DF814100844C0B2049097FBF9F09DF823
:1012B00014100844C0B203905E442F449DF81000FF
:1012C0009DF80C10884203DD03A904A8FFF72DFF49
:1012D00022469DF80C109DF81000149BFFF72AFF82
:1012E000601CC4B24445D8DD9DF82000201A00FBE4
:1012F0000AF69DF81800201A00FB05F724E0019873
:1013000096FBF0F09DF81C100844C0B2049097FBC7
:10131000F9F09DF814100844C0B2039056442F44CD
:101320009DF810009DF80C10884203DD03A904A865
:10133000FFF7FBFE22469DF80C109DF81000149B51
:10134000FFF7F8FE601CC4B29DF84C008442D6DD65
:1013500000F0B4FB00BF69E72DE9F84F06460F46E1
:1013600092469946DDF828B04FF000080024002589
:10137000AAF1200000F0FF087F2E02DD0026B81C35
:10138000C7B2B9F1100F30D100242BE0BBF1000F30
:1013900005D004EB0810F849085C009006E004EB67
:1013A0000810F549085CC043C0B20090002515E064
:1013B000802028410099084038B13A19D1B27219F9
:1013C000D0B2012200F03DFB06E03A19D1B2721909
:1013D000D0B2002200F035FB681CC5B2082DE7DB57
:1013E000601CC4B2102CD1DB35E0B9F1080F30D14C
:1013F00000242BE0BBF1000F05D0E04800EBC80053
:10140000005D009006E0DD4800EBC800005DC043D1
:10141000C0B20090002515E08020284100990840C6
:1014200038B13A19D1B27219D0B2012200F009FBD9
:1014300006E03A19D1B27219D0B2002200F001FBD5
:10144000681CC5B2082DE7DB601CC4B2082CD1DBD8
:1014500001E0BDE8F88F00F031FB00BFF9E72DE9AE
:10146000F84F0546894616461C46DDF828A0002799
:10147000102C05D1204604EBD071C1F347080BE0D6
:10148000082C07D1204604EBD0714910891C01F0CB
:10149000FF0801E0BDE8F88F13E0CDF800A0F25D91
:1014A000234649462846FFF757FF05EB0800C5B21B
:1014B000782D04DD002509EB040000F0FF09781CFD
:1014C000C7B2F05D0028E8D100BFE3E710B50246DF
:1014D000012000E050430B00A1F10104E1B2F9D179
:1014E00010BD2DE9FF4F83B0804692461E46DDE9D0
:1014F000104B00200290102C05D1204604EBD07137
:10150000C1F347070BE0082C06D1204604EBD0714D
:101510004910891CCFB202E007B0BDE8F08F00256A
:1015200030E0701B401EC1B20A20FFF7CFFFBAFBAC
:10153000F0F00A21B0FBF1F201FB1209029890B918
:10154000701EA8420FDDB9F1000F0AD107FB05811B
:10155000C8B223462022CDF800B00499FFF7FCFE64
:101560000EE00120029009F13001CAB207FB0581AB
:10157000C8B22346CDF800B00499FFF7EDFE00BFD6
:10158000681CC5B2B542CCDB00BFC5E72DE9FF4FF3
:1015900083B080468946924625200190002562E06E
:1015A00005EB0510764911F810009AF800108842F2
:1015B00057D105EB0510724901EB400040789AF8CD
:1015C000011088424DD1002448E0069840B105EB57
:1015D00005106B4901EB4000801C005D029009E0A2
:1015E00005EB0510664901EB4000801C005DC0431F
:1015F000C0B2029000262DE08020304102990840C0
:1016000098B1274604EBD77209EB6202D1B2A34628
:1016100004EBDB725210A4EB420208EBC20232442C
:10162000D0B2012200F00DFA12E0274604EBD77287
:1016300009EB6202D1B2A34604EBDB725210A4EBB9
:10164000420208EBC2023244D0B2002200F0F9F9A3
:10165000701CC6B2082ECFDB601CC4B2202CB4DBD9
:1016600004E0681CC5B20198854299DB00BF00F018
:1016700025FA07B0BDE8F08F2DE9FE4F07468846F2
:1016800091469B460620029000256DE005EB850003
:1016900000EB45103B4911F8100099F80010884202
:1016A00060D105EB850000EB4510364901EB4000A9
:1016B000407899F80110884254D100244FE0BBF1E2
:1016C000000F0AD005EB850000EB45102D4901EB1A
:1016D0004000801C10F804A00BE005EB850000EB37
:1016E0004510284901EB4000801C005DC04300F01C
:1016F000FF0A00262FE08020304100EA0A00A0B156
:10170000032094FBF0F04044C0B20190032094FB0E
:10171000F0F100FB114007EBC0003044C0B20122E1
:101720000090019900F08DF913E0032094FBF0F094
:101730004044C0B20190032094FBF0F100FB114043
:1017400007EBC0003044C0B200220090019900F0C5
:1017500078F9701CC6B2082ECDDB601CC4B2482CD0
:10176000ADDB04E0681CC5B2029885428EDB00BF89
:1017700000F0A4F9BDE8FE8FFC290008042700084A
:10178000EC2F0008D63400082DE9FF4F83B08046C7
:101790008946924606200190002566E005EB8510FB
:1017A0007C4911F810009AF8001088425BD105EBD3
:1017B0008510784901EB400040789AF80110884282
:1017C00051D100244CE0069840B105EB85107149D9
:1017D00001EB4000801C005D029009E005EB8510E4
:1017E0006C4901EB4000801C005DC043C0B2029018
:1017F000002731E08020384102990840A8B12646F0
:10180000E21704EB927209EBA202D1B2A346E217EF
:1018100004EB92729210A4EB820208EBC2023A44EB
:10182000D0B2012200F00DF914E02646E21704EBD5
:10183000927209EBA202D1B2A346E21704EB9272B4
:101840009210A4EB820208EBC2023A44D0B200220A
:1018500000F0F7F8781CC7B2082FCBDB601CC4B2CD
:10186000802CB0DB04E0681CC5B20198854295DB92
:1018700000BF00F023F907B0BDE8F08F2DE9F0417B
:1018800006460F4614461D46DDF8188026E0102C4B
:1018900006D143462A4639463046FFF777FE13E025
:1018A000182C06D143462A4639463046FFF7E4FE57
:1018B0000AE0202C06D143462A4639463046FFF737
:1018C00063FF01E0BDE8F0813019C6B2C4F18000C9
:1018D000B04202DA00263819C7B2AD1C28780028B9
:1018E000D5D100BFEEE72DE9F84F8046894617466F
:1018F0009A46DDF828B0002545E000243AE00B9830
:1019000050B1F81DC11700EB5171C91005FB014121
:101910001BF8011000910BE0F81DC11700EB51718D
:10192000C91005FB01411BF80110C943C9B2009160
:1019300000261BE0802030410099084050B109EB9F
:101940000502D1B208EBC4023244D0B2012200F049
:1019500078F809E009EB0502D1B208EBC402324481
:10196000D0B2002200F06DF8701CC6B2082EE1DB88
:10197000601CC4B2F81DC11700EB5171B4EBE10F4C
:10198000BDDB681CC5B25545B7DB00F097F8BDE874
:10199000F88F00009236000870B504460D462DB150
:1019A0004FF48061AE4800F090FB04E04FF480619A
:1019B000AB4800F08CFB4FF40061A94800F087FBB6
:1019C000E0B200F051F94FF40061A54800F07DFB52
:1019D00070BD70B505460C462646E11704EB517103
:1019E000C91001F1B0000021FFF7D6FFA91CC1F317
:1019F000031141F010000021FFF7CEFFA91C01F0F8
:101A00000F000021FFF7C8FF70BD10B500218D2029
:101A1000FFF7C2FF00211420FFF7BEFF0021AF2017
:101A2000FFF7BAFF10BD10B500218D20FFF7B4FFFE
:101A300000211020FFF7B0FF0021AE20FFF7ACFF20
:101A400010BDF0B503461446E4B1CD1701EB557552
:101A5000ED1003EBC515834E755D0A46CE1701EBFD
:101A60005676F610A1EBC6070126BE40F6B2354306
:101A70000846CE1701EB5676F61003EBC616794FE3
:101A8000BD551AE0CD1701EB5575ED1003EBC515EB
:101A9000744E755D0A46CE1701EB5676F610A1EB33
:101AA000C6070126BE40B5430846CE1701EB567661
:101AB000F61003EBC6166B4FBD55F0BD70B5002494
:101AC0001BE004F1B0000021FFF766FF002108468B
:101AD000FFF762FF00211020FFF75EFF002508E0FE
:101AE00005EBC4115F4A505C0121FFF755FF681CEC
:101AF000C5B2802DF4DB601CC4B2082CE1DB70BDE4
:101B000010B5044634B1FF224FF48061554800F00F
:101B10006DFD04E04FF48061524800F06FFDFFF767
:101B2000CDFF10BD10B54FF480514D4800F0CDFAF7
:101B3000642000F0FCF84FF48051494800F0C7FAE7
:101B4000642000F0F4F84FF48051454800F0BDFAED
:101B500010BD08B50121082000F0C6FC4FF43C4040
:101B6000ADF8000010208DF8030003208DF802006E
:101B700069463B4800F0FCF94FF43C41384800F01E
:101B8000A4FA08BD10B5FFF7E4FFC82000F0CFF8B5
:101B9000FFF7C8FF0021AE20FFF7FEFE0021084638
:101BA000FFF7FAFE00211020FFF7F6FE002140208B
:101BB000FFF7F2FE0021B020FFF7EEFE00218120AA
:101BC000FFF7EAFE0021FF20FFF7E6FE0021A1203B
:101BD000FFF7E2FE0021A620FFF7DEFE0021A8208D
:101BE000FFF7DAFE00213F20FFF7D6FE0021C820D4
:101BF000FFF7D2FE0021D320FFF7CEFE00210846DA
:101C0000FFF7CAFE0021D520FFF7C6FE0021802085
:101C1000FFF7C2FE0021D920FFF7BEFE0021F12010
:101C2000FFF7BAFE0021DA20FFF7B6FE00211220EE
:101C3000FFF7B2FE0021DB20FFF7AEFE00213020CF
:101C4000FFF7AAFE00218D20FFF7A6FE0021142039
:101C5000FFF7A2FE0021AF20FFF79EFE10BD00009F
:101C6000000C01400C0D002070B50446002508252D
:101C70001BE004F0800028B14FF400410C4800F054
:101C800024FA04E04FF40041094800F020FA4FF430
:101C90000051074800F01BFA4FF40051044800F0CF
:101CA00014FA6006040E681EC5B2002DE1DC70BD9A
:101CB000000C014010B56FF0040000F0DAF82E4877
:101CC00000682E49B0FBF1F02D49087008460078F5
:101CD00000EB4001C1EBC0104FF6FF7101EAC000FC
:101CE0002849088010BD0146254A12784A434FF022
:101CF000E0235A6100229A611A46126942F00102F9
:101D00001A6100BF4FF0E022106900F001021AB121
:101D100000F48032002AF5D04FF0E022126922F060
:101D200001024FF0E0231A6100229A6170470146D8
:101D3000144A12884A434FF0E0235A6100229A6104
:101D40001A46126942F001021A6100BF4FF0E02208
:101D5000106900F001021AB100F48032002AF5D0B7
:101D60004FF0E022126922F001024FF0E0231A61E5
:101D700000229A61704700000000002000127A00E3
:101D8000F40C0020F60C002010B54FF4A06000F019
:101D900021F810BD0948804709480047FEE7FEE7E3
:101DA000FEE7FEE7FEE7FEE7FEE7FEE7FEE7FEE70B
:101DB00004480549054A064B70470000A303000884
:101DC000310100085012002050180020501400204B
:101DD0005014002031490143314A1160704770B5F9
:101DE000002100230F22C47804B32D4C246804F48E
:101DF000E064C4F5E064210AC1F10403CA404478F8
:101E000004FA03F18478144021430901254C067833
:101E1000A155047804F01F050124AC4005786D112C
:101E2000AD0005F1E025C5F8004109E0047804F0B3
:101E30001F050124AC401C4D0678761145F826405C
:101E400070BD1A4A0A400243154B1B1F1A607047A7
:101E500039B1134A121D12680243114B1B1D1A603F
:101E600006E00F4A121D126882430D4B1B1D1A60BB
:101E70007047042808D14FF0E021096941F00401BE
:101E80004FF0E022116107E04FF0E021096921F0F5
:101E900004014FF0E0221161704700000000FA05D4
:101EA0000CED00E000E400E080E100E080FFFF1FB7
:101EB00010B50446CC48844208D10121042000F02A
:101EC0002DFB0021042000F029FB46E0C748844296
:101ED00008D10121082000F021FB0021082000F09A
:101EE0001DFB3AE0C248844208D10121102000F0D5
:101EF00015FB0021102000F011FB2EE0BD488442AC
:101F000008D10121202000F009FB0021202000F051
:101F100005FB22E0B848844208D10121402000F0AE
:101F2000FDFA0021402000F0F9FA16E0B34884429F
:101F300008D10121802000F0F1FA0021802000F07A
:101F4000EDFA0AE0AE48844207D10121801500F085
:101F5000E5FA0021A01500F0E1FA10BD10B501214D
:101F6000084600F0DBFA0021012000F0D7FA10BD8E
:101F70002DE9F04102460025002600200023002420
:101F8000002791F803C00CF00F0591F803C00CF086
:101F9000100CBCF1000F03D091F802C04CEA05050B
:101FA00091F800C0BCF1000F31D0146800202BE084
:101FB0004FF0010C0CFA00F3B1F800C00CEA030674
:101FC0009E4220D183004FF00F0C0CFA03F7BC4364
:101FD00005FA03FC4CEA040491F803C0BCF1280F95
:101FE00006D14FF0010C0CFA00FCC2F814C00AE054
:101FF00091F803C0BCF1480F05D14FF0010C0CFA69
:1020000000FCC2F810C0401C0828D1D31460B1F8FD
:1020100000C0BCF1FF0F34DD546800202EE000F159
:10202000080C4FF0010808FA0CF3B1F800C00CEAF4
:1020300003069E4221D183004FF00F0C0CFA03F7E8
:10204000BC4305FA03FC4CEA040491F803C0BCF15C
:10205000280F05D100F1080C08FA0CF8C2F814801A
:1020600091F803C0BCF1480F07D100F1080C4FF004
:10207000010808FA0CF8C2F81080401C0828CED3DA
:102080005460BDE8F0814FF6FF710180022181703C
:102090000421C17070470246002093680B400BB1C9
:1020A000012000E0002070470146886880B2704738
:1020B00002460020D3680B400BB1012000E0002055
:1020C00070470146C86880B270470161704741613E
:1020D00070470AB1016100E041617047C16070471B
:1020E0004FF480320A438261816182618269826930
:1020F000704702460020434B18684FF68073184023
:1021000040EA021008433F4B186070473E49C861DF
:102110007047F0B50A46002300240021002500F096
:102120000046B6F1004F02D1364EF16901E0354E5E
:102130007168C0F3034583B200F44016B6F5401F42
:1021400008D121F070612F4E766826F070662D4F11
:102150007E6012E000F48016B6F5801F06D10326DB
:1021600006FA05F4A14341F0706106E0460D360120
:1021700003FA06F6B14341F0706122B1460D360113
:1021800003FA06F6314300F00046B6F1004F02D1E3
:102190001C4EF16101E01B4E7160F0BD30B50022B4
:1021A0008B071C0F0F2303FA04F2164B08338C1015
:1021B00053F824309343134C08348D1044F82530E1
:1021C00023468C1053F824308C07240F00FA04F4B3
:1021D00023430C4C08348D1044F8253030BD0A4997
:1021E000DC3108607047000000080140000C01402D
:1021F000001001400014014000180140001C014083
:10220000002001400000014000002042DF4800683B
:1022100040F00100DD49086008464068DC4908409C
:10222000DA49486008460068DA490840D74908603A
:102230000846006820F4802008600846406820F4C2
:10224000FE0048604FF41F0088607047CF4909685E
:1022500021F48031CD4A11601146096821F48021B2
:102260001160B0F5803F03D0B0F5802F0ED106E0AD
:10227000C649096841F48031C44A116007E0C34986
:10228000096841F4A021C14A116000E000BF00BF0D
:10229000704710B501460022002300204A11012A90
:1022A00002D1BA4C236806E0022A02D1B74C236A55
:1022B00001E0B64C636A01F01F02012494401C4007
:1022C0000CB1012000E0002010BD38B500200090C6
:1022D0000024002500BF3120FFF7DBFF05460098F2
:1022E000401C00900098B0F5A06F01D0002DF2D0F6
:1022F0003120FFF7CEFF08B1012400E00024204682
:1023000038BD01460020A14A106820F0F80040EADC
:10231000C10010607047A049086070470246002065
:102320009A4B586820F47C1042EA01031843974BFB
:102330005860704798490866704701460020934AE4
:10234000506820F003000843506070478F48406891
:1023500000F00C007047014600208C4A506820F0C5
:10236000F00008435060704701460020874A5068DB
:1023700020F4E06008435060704701460020834A23
:10238000506820F4605040EAC1005060704729B1A5
:102390007E4A527A02437D4B5A7204E07B4A527A5B
:1023A00082437A4B5A7270477B49D8310860704734
:1023B00001460020754A506820F4404008435060B0
:1023C00070470021714A20321170704A82F8201043
:1023D000012802D004280AD104E001216B4A2032EE
:1023E000117005E00521694A2032117000E000BF3C
:1023F00000BF70476949086070476449096A014332
:10240000624A11627047654944390860704730B5C7
:1024100000210022002400235C4D6D6805F00C01B2
:1024200021B1042905D0082923D105E05C4D0560C0
:1024300022E05B4D05601FE0544D6D6805F470129D
:10244000524D6D6805F48034022505EB92421CB9AB
:10245000544D554305600BE04C4D6D6805F4003557
:102460001DB1504D5543056002E04D4D554305608B
:1024700002E04B4D056000BF00BF444D6D6805F0A4
:10248000F0010909484D6B5C0568DD4045603F4D32
:102490006D6805F4E061090A434D6B5C4568DD40F9
:1024A00085603A4D6D6805F46051C90A3E4D6B5C1C
:1024B0004568DD40C560354D6D6805F44041890BC8
:1024C0003A4D6B5CC568B5FBF3F5056130BD29B1CC
:1024D0002E4A526902432D4B5A6104E02B4A52693D
:1024E00082432A4B5A61704729B1284A92690243B4
:1024F000264B9A6104E0254A92698243234B9A61F4
:10250000704729B1214AD2690243204BDA6104E0C5
:102510001E4AD26982431D4BDA61704729B11B4ABA
:10252000D2680243194BDA6004E0184AD268824349
:10253000164BDA60704729B1144A12690243134BF3
:102540001A6104E0114A12698243104B1A61704704
:1025500012494039086070470F49C86470470B49F9
:10256000C87170470948406A40F080700749486266
:10257000704701460020054A92680A400AB10120CE
:1025800000E0002070470149887270470010024047
:102590000000FFF8FFFFF6FE0000424280044242C6
:1025A00000127A0000093D00F80C0020080D002000
:1025B0000B4910B5A1F17C020A4CC2E93712372150
:1025C00006E000EB104342F82130074B00FB0340CC
:1025D0000B1EA1F10101F4DC10BD0120E8E70000B1
:1025E00088110020E119D666CD0D010002F0FF032D
:1025F00043EA032242EA024200F002B84FF000022E
:102600000429C0F0128010F0030C00F01E80CCF101
:10261000040CBCF1020F18BF00F8012BA8BF20F872
:10262000022BA1EB0C0100F010B85FEAC17C24BFC3
:1026300000F8012B00F8012B48BF00F8012B704770
:102640007047704770474FF0000200B5134694463C
:102650009646203922BFA0E80C50A0E80C50B1F1FA
:102660002001BFF4F7AF090728BFA0E80C5048BF0E
:102670000CC05DF804EB890028BF40F8042B08BFAC
:10268000704748BF20F8022B11F0804F18BF00F8A8
:10269000012B7047754600F029F8AE4605006946E3
:1026A000534620F00700854618B020B5FFF780FBA1
:1026B000BDE820404FF000064FF000074FF0000843
:1026C0004FF0000B21F00701AC46ACE8C009ACE8C4
:1026D000C009ACE8C009ACE8C0098D4670470446A3
:1026E000AFF300802046FDF78CFD000000487047E6
:1026F000F01100207047000001491820ABBEFEE732
:102700002600020000000000000000001010101061
:1027100000100000282828000000000028287C283D
:102720007C282800103C503814781000004C2C10E5
:1027300008606000304850205448340030102000B9
:1027400000000000081020202010080020100808B9
:102750000810200000105438541000000010107CA5
:102760001010000000000000001808100000000019
:102770007C00000000000000003030000004081061
:102780002040000038444C5464443800103010108D
:10279000101038003844040810207C007C08100811
:1027A00004443800081828487C0808007C40780455
:1027B0000444380018204078444438007C04081051
:1027C0002020200038444438444438003844443CF5
:1027D000040830000030300030300000003030009D
:1027E00030102000081020402010080000007C005D
:1027F0007C00000020100804081020003844040861
:1028000010001000384404345C443800102844445C
:102810007C44440078444478444478003844404040
:102820004044380070484444444870007C4040783C
:1028300040407C007C404078404040003844405C50
:1028400044443C004444447C444444003810101048
:10285000101038001C080808084830004448506030
:10286000504844004040404040407C00446C545438
:1028700044444400444464544C4444003844444474
:10288000444438007844447840404000384444444C
:102890005448340078444478504844003C40403820
:1028A000040478007C1010101010100044444444BC
:1028B00044443800444444444428100044444454AC
:1028C00054542800444428102844440044444428D4
:1028D000101010007C04081020407C0038202020BC
:1028E00020203800004020100804000038080808A4
:1028F0000808380010284400000000000000000014
:1029000000007C00201008000000000000003804D7
:102910003C443C0040405864444478000000384047
:10292000404438000404344C44443C000000384423
:102930007C403800382420702020200000003C44D7
:10294000443C043840405864444444001000301073
:102950001010380008001808080848304040485057
:1029600060504800301010101010380000006854FB
:102970005444440000005864444444000000384477
:102980004444380000005864645840400000344C0F
:102990004C340404000058644040400000003C40B7
:1029A00038047800202070202024180000004444BF
:1029B000444C3400000044444428100000004444C7
:1029C00054542800000044281028440000004444C7
:1029D000443C043800007C0810207C00102020407B
:1029E00020201000001010101010100020101008EF
:1029F000101020000000002054080000000000001B
:102A000000000000000000000000000000000018AE
:102A1000181818181818000018180000001236248A
:102A2000480000000000000000000000000000243A
:102A30002424FE484848FE4848480000000010385A
:102A4000545450301C1414545438101000000044D6
:102A5000A4A8A8A8541A2A2A2A440000000000307A
:102A6000484848506EA49488897600000060602031
:102A7000C000000000000000000000000002040888
:102A80000810101010101008080402000040201058
:102A90001008080808080810102040000000000076
:102AA0001010D63838D610100000000000000000CA
:102AB00010101010FE101010100000000000000098
:102AC0000000000000000000606020C00000000066
:102AD000000000007F000000000000000000000077
:102AE0000000000000000000606000000000010223
:102AF00002040408081010202040400000000018C4
:102B00002442424242424242241800000000001087
:102B10007010101010101010107C00000000003C0D
:102B20004242420404081020427E00000000003CA3
:102B3000424204180402024244380000000000042B
:102B40000C14242444447E04041E00000000007E73
:102B50004040405864020242443800000000001C1B
:102B60002440405864424242241800000000007E85
:102B70004244080810101010101000000000003C23
:102B80004242422418244242423C00000000001805
:102B900024424242261A02022438000000000000AB
:102BA00000001818000000001818000000000000C5
:102BB000000018180000001818083000000000027B
:102BC000040810204020100804020000000000004B
:102BD0000000FE000000FE000000000000000040B9
:102BE0002010080402040810204000000000003CEF
:102BF0004242620204080800181800000000003871
:102C0000445AAAAAAAAAB4424438000000000010FC
:102C100010182828243C444242E70000000000F835
:102C2000444444784442424244F800000000003EDC
:102C3000424280808080804244380000000000F8DA
:102C4000444242424242424244F80000000000FE38
:102C5000424848784848404242FE0000000000FEDA
:102C6000424848784848404040E000000000003CAE
:102C700044448080808E844444380000000000E793
:102C8000424242427E42424242E700000000007C53
:102C90001010101010101010107C00000000003EEA
:102CA0000808080808080808080888F0000000EE6E
:102CB000444850705048484444EE0000000000E092
:102CC000404040404040404042FE0000000000EED6
:102CD0006C6C6C6C5454545454D60000000000C703
:102CE000626252524A4A4A4646E2000000000038F8
:102CF000448282828282828244380000000000FC8A
:102D0000424242427C40404040E000000000003827
:102D1000448282828282B2CA4C380600000000F8E7
:102D2000444444784848444442E300000000003EE4
:102D30004242402018040242427C0000000000FE93
:102D4000921010101010101010380000000000E752
:102D50004242424242424242423C0000000000E7FE
:102D6000424244242428281810100000000000D6F5
:102D700092929292AAAA6C4444440000000000E798
:102D8000422424181818242442E70000000000EE12
:102D90004444282810101010103800000000007E55
:102DA000840408081020204242FC0000001E10107D
:102DB000101010101010101010101E0000004040D5
:102DC0002020101008040402020201010078080803
:102DD00008080808080808080808780000081422ED
:102DE00000000000000000000000000000000000E3
:102DF0000000000000000000000000FF0060100064
:102E000000000000000000000000000000000000C2
:102E10000000003C421E2242423F0000000000C071
:102E200040404058644242426458000000000000A4
:102E30000000001C22404040221C00000000000650
:102E40000202021E22424242261B00000000000035
:102E50000000003C427E4040423C00000000000F69
:102E60001110107E10101010107C000000000000E7
:102E70000000003E444438403C42423C000000C058
:102E80004040405C6242424242E7000000000030A5
:102E90003000007010101010107C00000000000CBA
:102EA0000C00001C0404040404044478000000C066
:102EB0004040404E4850684844EE0000000000701A
:102EC0001010101010101010107C000000000000F6
:102ED000000000F64949494949ED000000000000A2
:102EE000000000DC6242424242E7000000000000B5
:102EF0000000003C42424242423C00000000000010
:102F0000000000D864424242645840E000000000E3
:102F10000000001E22424242261A02070000000062
:102F2000000000EE3220202020F800000000000009
:102F30000000003E42403C02427C000000000000D5
:102F40000010107C10101010100C00000000000089
:102F5000000000C642424242463B00000000000022
:102F6000000000E7422424281010000000000000A8
:102F7000000000D79292AAAA44440000000000007A
:102F80000000006E241818182476000000000000CD
:102F9000000000E742242428181010E00000000080
:102FA0000000007E44081010227E0000000304048C
:102FB00004040408040404040404030008080808C2
:102FC0000808080808080808080808080060101021
:102FD00010101008101010101010600000000000F9
:102FE000000020520C00000000000000C8AB0100EF
:102FF000010002800440082010102FE8C1060100E3
:1030000001001FF00100010001007FFC0000B6AFCD
:10301000004000407C40004001FC0044FE4420444D
:103020002044208448844484FD044504022804107C
:10303000B5E70100010001003FF82108210821083F
:103040003FF82108210821083FF8210A0102010266
:1030500000FED7D300007FF8001000200040018060
:103060000100FFFE0100010001000100010001005C
:1030700005000200BCBC10201020102013FEFC2014
:103080001020102015FC18843088D04810501020D3
:10309000105051882606CAF50100012001100110C8
:1030A0007FFC0380054005400920111021084104E0
:1030B0008102010001000100CFB500F83F000400CB
:1030C000082010403F800100061018087FFC010412
:1030D00009201110210845040200CDB31040102032
:1030E000202023FE4840F888110423FE4092F890E7
:1030F000409000901912E112420E0400C9E800004D
:1031000021F0111011100110020EF40013F8110833
:103110001110109014A0184010A003180C06D6C36C
:103120007FFC44447FFC01007FFC01001FF0101075
:103130001FF010101FF010101FF01010FFFE000005
:10314000D2F4020001003FF8000008200440FFFE16
:1031500000001FF0101010101FF0101010101FF0C2
:103160001010C1BF00001FF010101FF01010FFFE64
:1031700000001FF011101FF011101FF001001FF0D0
:1031800001007FFCD1D5100008FE7F102220147CA6
:103190007F4444544854525444544854515442284F
:1031A000442488423082C9AB080008001FE0202078
:1031B0004040BFF82108210821083FF820002002E4
:1031C000200220021FFE0000CDF800007FFC40041A
:1031D0004004421452944A54442444244A544A54C5
:1031E00052946104400440144008C2E710801080EB
:1031F00020F821084B10FCA0104020A04118FA062E
:1032000045F801081908E10841F80108C0EE01007D
:1032100001807FFC010005400930310EC1040FE040
:10322000004001887FFC0100010005000200CCEF96
:1032300000000000000001F81F18191819D81F1805
:1032400009300FF000300000000000000000000016
:10325000CEC40000008000800000003001F80FC0E4
:1032600000400340018000C003201C1E0006000037
:103270000000BFAD00000200060006B816D81750C7
:1032800008500E5012500C911299150F1801100091
:1032900000000000C4E3000000000000140014005F
:1032A00027E024206940A100254025202520292051
:1032B000210023000000B2BB00000000000000005D
:1032C000FFE00200020004000D0014802440C4202E
:1032D0000400040004000000C4DC00000000000042
:1032E00022404A80FB00022079E048007A004A40F0
:1032F0007A804B204A2059E00000D7F600000000F9
:1033000000002900290049005DE0CA4049405D40B5
:10331000554055405C80514042200000CED2000014
:10332000000000001A00724012201200FFE012009C
:1033300012401A803100D32014A030600000B5C4C0
:1033400000000000000021004100F9E08A208C20EC
:103350008920F8A088A088208820F82088C0000054
:10336000CAAB000000000000810041000FC0010056
:10337000DFE040805FE040804880448060804180A2
:103380000000A3AC000000000000000000000000EE
:10339000000000000000300030001000200000009D
:1033A00000000000D5FD00000000000000007FC00C
:1033B000040004000400240027C02400240024008A
:1033C0002400FFE00000C8E700000000000020002B
:1033D000200023E0FA204A204A204A20922052204E
:1033E000222053E08A200000CED20000000000001E
:1033F0001A00724012201200FFE0120012401A80E0
:103400003100D32014A030600000B2BB00000000E7
:1034100000000000FFE00200020004000D00148024
:103420002440C4200400040004000000C4DC0000A8
:103430000000000022404A80FB00022079E04800A2
:103440007A004A407A804B204A2059E00000D7F6A3
:103450000000000000002900290049005DE0CA408A
:1034600049405D40554055405C805140422000003D
:10347000C4E30000000000001400140027E0242032
:103480006940A10025402520252029202100230076
:103490000000B5C400000000000021004100F9E078
:1034A0008A208C208920F8A088A088208820F820F5
:1034B00088C00000C3CE0000000000002080FBE0B8
:1034C000208071C0AAA0208008001FC06040118029
:1034D0000E00F0000000C8AB000000000000003843
:1034E0000000300000680000440000C200018100BC
:1034F0000300C00600700FFFFE10180860180000DF
:10350000180000180000186003FF80001800001861
:10351000000018000018081FFFFC00000000000059
:10352000B6AF000000000000000180000100006153
:10353000003F810000010000010C0007FC00310C7D
:103540003FC10C06010C04010C0C81080843081053
:1035500062081022082FF408381408000808001127
:10356000180020F8004030000000B5E7000000001F
:1035700000000018000010000010000010000FFFF5
:10358000F00810200810200810200810200FFFE07D
:103590000810200810200810200810200FFFE00855
:1035A000100000100800100800100400180C000F94
:1035B000F8000000D7D30000000000000000200F3A
:1035C000FFF00000600000800003000014000018FD
:1035D0000000180000180C7FFFFE00180000180003
:1035E0000018000018000018000018000018000063
:1035F000180000180000F800003000000000BCBCFB
:10360000000000040000070180060100060100061A
:10361000010006C10C3F3FF0060100060100060153
:103620000006FFF80708103E083026042006046054
:103630000602400602C0060180060380060C601EDA
:10364000103E0CE00C000000CAF500000000000075
:10365000001C000019800018E00018600018280005
:10366000181C3FFFE0003C00007C00005A0000DA1C
:10367000000099000119800318C00618600418386A
:1036800008181E3018084018000018000018000024
:103690000000C8AB000000000000000000030000B4
:1036A000000380000007800000068000000C40003E
:1036B000001C2000001830000030180000600C00D2
:1036C00000C00700018003C0030002F807FFFF7C71
:1036D00008018090300180004001800000018000DE
:1036E000000181000001838001FFFFC00001800014
:1036F00000018000000180000001800000018000C6
:1037000000018010000180381FFFFFFC0000000056
:1037100000000000B6AF0000000000000000000044
:10372000080000000E0000000C00000C0C003FFE22
:103730000C0010000C0000000C0000000C18000031
:10374000FFFC00020C1800070C183FFF8C1801C08A
:103750000C1801C00C18018008180300081802108A
:10376000181806081818040C101808061018100667
:1037700030102FFB20103E0360101002C0300000FC
:10378000803000010C30000203E0000C01E000106A
:10379000008000000000B5E700000000000000000D
:1037A000000300000003800000030000000300008D
:1037B000000300000003000007FFFFC0060300C075
:1037C000060300C0060300C0060300C0060300C0D5
:1037D000060300C007FFFFC0060300C0060300C0C9
:1037E000060300C0060300C0060300C007FFFFC0B9
:1037F0000603008006030000000300100003000819
:1038000000030008000300180003801C0001FFF8FB
:103810000000000000000000D7D3000000000000FE
:10382000000000000000000000C003FFFFE00000F7
:1038300001E0000003000000060000001800000086
:1038400030000001C0000001C00000018000000144
:103850008010000180383FFFFFFC00018000000164
:103860008000000180000001800000018000000154
:103870008000000180000001800000018000000144
:1038800080000001800000018000003F80000007F0
:1038900000000002000000000000BCBC00000000AE
:1038A000000000000180080001C00E0001800C0033
:1038B00001800C0001800C0001800C0001980C18A4
:1038C0003FFFFFFC01800C0001800C0001800C0018
:1038D00001800C00018C0C2001B3FFF001C080605E
:1038E0000F8080603D8040C0318040C001802180D9
:1038F000018021800180330001801E0001800C00C6
:1039000001801E00018037000180E3C01F8380F822
:10391000078E007C0230000000000000CAF50000A5
:10392000000000000000000100000001C0000001D4
:103930008C0000018700000183800001818000016C
:103940008080000180303FFFFFF81003C0000007B7
:10395000C0000007A000000DA000000D900000199D
:1039600090000019980000318C000061860000C1B1
:10397000870000818380018181C0030180F0040100
:10398000807C0801803810018010600180000001F7
:103990008000000180000001000000000000000025
:1039A000C0390008000000200C0D00006C01000868
:1039B000003E00080C0D0020440B0000C801000868
:1039C0001184A24A04000910010203040607080931
:1039D00010087FE003911C3818127013FFFC1010C0
:1039E00007FFFE6660045B224414018C017FFA121B
:1039F00004100E0236C00815408052020201BFF6C4
:103A000010103DB6DA1F808811408034047101DF48
:103A1000EE2E25B6DA0F021012182D8801E01E10C6
:103A20003B060A205B0104202B062A1012525A2062
:103A3000401D06AA845160115A70603C06AA83801A
:103A40005A2080016414031FFC853FFC7FF014079B
:103A50003FFE857FFCFFF8140F3006126083C0180C
:103A6000DA1B10DA3310AD63300618101AC3108B4E
:103A70007FFC101A8330A9101A0370110A190C1058
:103A80001930D9100A1D1810F9400A1A6010D9F01F
:103A900014031FFC05583FF87FF014F9E30F75F18C
:103AA000E01E3C800A010A1510810A1021421B12F7
:103AB000111011832140800922111F810BE0217C0C
:103AC0002A422099307F821110990A131078080138
:103AD000F9E7CF18F1E360019572FF45411C4141C0
:103AE0003A81C93E7C826322611042F18FC682C254
:103AF000554151203FAA80A2497E491042FD9F9224
:103B00007C92414045407F028A4121432240A808DF
:103B1000828286411E411C6001FF51800903F80327
:103B2000FFF803C0F01B0FFE108407F3FC1C180302
:103B3000031583FFFE24300183841FFFFF12600AF8
:103B400020C3109940E91019507D7FC007FF701EF7
:103B5000300303FFF08379808F0603803801FFA0D4
:103B600013FC031218837FC01A1F6A120C8B3F804C
:103B7000501A8010920E12601AC010DA0410A109B7
:103B800013100A1A101012C68D0C1E38CC1012C752
:103B90009D1C114532D08E8038114522A019BD9947
:103BA000101B0FFEBD991051CB1E791011F240E988
:103BB00010012DF2081A14B5A114018022A390045B
:103BC000BC024042109E064041010843BC042081D3
:103BD00010AF08208102041010AB80821013102156
:103BE0009B820210132011AA8410134012A44402D5
:103BF000201380129B48011011E910120CEA3010BA
:103C000011027CC0E30780D3FFFEBC0380039F2228
:103C10000CC238190DB2071B01E0049931420EA203
:103C2000607A180561391BA2044240A202399D8ABC
:103C3000015F491079B32A019021797112012A0F8D
:103C40000C797112032A1FCF8A3010243FFFFF7AAC
:103C500010FD117E7FFFFFFFC0101206190F8BFFB2
:103C6000E0103A03107A20103A0F1079601A064FCC
:103C70007CFFFFF0807808073C3FFFF87FF1A03A17
:103C8000072092F13A03108AF310122012FF8B07DB
:103C9000F2E08F0FFF7EFFFBE7108F9F7F81FDFC1F
:103CA0000FF07FBE3F9DF8FDFF10119EDF7FBCFD32
:103CB000FB101E67FE7E7FE3E281A73801FF800FC5
:103CC000FE2A1F80DAFC10A2F849E0A11307FE7B50
:103CD0007FFFDF19B112FF9AFF5F119D01FFC7FF40
:103CE0005F21C94F2119F1994F396189AE39519935
:103CF0008E3941B92F011EF202F2072A0F6B5D01C6
:103D0000838061C21C0F80F0256D82E3E1B0102238
:103D10001C750C6C023F120E320312FE5A3FA312A6
:103D20000613F1805E0F81F7C07CAD1C801880B255
:103D30006A80A41501C00C40760218818C60CBE12A
:103D400084101C7FC240307A81D41B3FE220116C6A
:103D500031800CA11999B603FFF0FFFC1D01FFC0D3
:103D60007FA701330A100E071401800E2A20A92113
:103D700032701907298B1CE03F810A112C61FFF07A
:103D8000E94403C0F81207421C121E320F137C1CB8
:103D90001C031F80073B07FF071C1FFF9F2B2C1CCA
:103DA0007C032B130FF02A7CB8190A12E01B0FF2C8
:103DB0003B12FE192619EF43803C1B03801F295834
:103DC0002973197C59074A7807591C392A440780F6
:103DD0003E163F800FE1C01B1FFC541CFC03FFFD7F
:103DE0001AFF01412BFFFF5711B301FC2D01020304
:103DF0000404000900060708090204060800000080
:0400000508000131BD
:00000001FF
