:020000040800F2
:10000000801800203D280008C3020008C50200082F
:10001000C9020008CD020008D1020008000000005B
:10002000000000000000000000000000D5020008F1
:10003000D702000800000000D9020008DB02000817
:100040005728000857280008572800085728000894
:100050005728000857280008572800085728000884
:100060005728000857280008572800085728000874
:100070005728000857280008572800085728000864
:100080005728000857280008572800085728000854
:100090005728000857280008572800085728000844
:1000A0005728000857280008572800085728000834
:1000B0005728000857280008572800085728000824
:1000C0005728000857280008572800085728000814
:1000D0005728000857280008572800085728000804
:1000E00057280008572800085728000857280008F4
:1000F00057280008572800085728000857280008E4
:1001000057280008572800085728000857280008D3
:1001100057280008572800085728000857280008C3
:1001200057280008572800085728000857280008B3
:1001300000F002F800F05CF80AA090E8000C82449D
:100140008344AAF10107DA4501D100F051F8AFF27A
:10015000090EBAE80F0013F0010F18BFFB1A43F0A5
:1001600001031847C0420000E04200000A444FF07B
:10017000000C10F8013B13F0070408BF10F8014B06
:100180001D1108BF10F8015B641E05D010F8016B4B
:10019000641E01F8016BF9D113F0080F1EBF10F8AF
:1001A000014BAD1C0C1B09D16D1E58BF01F801CBD2
:1001B000FAD505E014F8016B01F8016B6D1EF9D555
:1001C0009142D6D37047000000230024002500266A
:1001D000103A28BF78C1FBD8520728BF30C148BFAA
:1001E0000B6070471FB503F0D2F81FBD10B510BDEE
:1001F00003F02AF91146FFF7F5FF00F023F803F0AA
:1002000048F903B4FFF7F2FF03BC03F04FF9000015
:100210000B49D1F800C04A685CF8043B10681844E8
:1002200042F8040B8C4528BFA1F1DC0C8A4228BFA0
:10023000A1F1DC02C1F800C04A6020F00040704724
:100240001812002002F090FA4FF4A06002F016FBA2
:1002500002F0A1F901F0F6FB002002F05AF92FE0BC
:1002600000212E2002F0A0F80021272002F09CF8A7
:100270000021084602F098F80021084602F094F8A0
:100280000021072002F090F80021012002F08CF8F4
:100290000021084602F088F80021FF2002F084F8CF
:1002A00001F0ACFB02F065F800212F2002F07CF891
:1002B00040F2DC5002F095FA40F2465002F091FA1A
:1002C000CEE7704700BFFEE700BFFEE700BFFEE7D6
:1002D00000BFFEE770477047704770470CB50020BD
:1002E000019000906C48006840F480306A490860D2
:1002F00000BF6948006800F4003000900198401C7D
:100300000190009818B90198B0F5A06FF1D162483A
:10031000006800F4003010B10120009001E00020DE
:1003200000900098012843D15C48006840F010001C
:100330005A4908600846006820F003000860084633
:10034000006840F002000860534840685249486025
:100350000846406848600846406840F4806048604D
:100360000846406820F47C1048600846406840F425
:10037000E81048600846006840F08070086000BFE0
:100380004548006800F000700028F9D042484068F5
:1003900020F00300404948600846406840F00200F1
:1003A000486000BF3C48406800F00C000828F9D1C4
:1003B0000CBD10B5FFF792FF10BD10B536480068B0
:1003C00040F001003449086008464068344908405C
:1003D0003149486008460068324908402E490860A3
:1003E0000846006820F4802008600846406820F431
:1003F000FE0048604FF41F008860FFF7DAFF4FF0FF
:1004000000602949086010BD10B5002100200022BD
:10041000214B5B6803F00C0121B1042906D00829A7
:1004200028D107E0214B224C236027E01F4B204CB2
:10043000236023E0184B5B6803F47010164B5B6875
:1004400003F48032022303EB904022B9194B43435B
:10045000174C23600DE0104B5B6803F4003323B1AD
:10046000144B4343124C236003E0104B4343104CA6
:10047000236003E00D4B0E4C236000BF00BF064B12
:100480005B68C3F303130C4CE15C094B1B68CB4066
:10049000074C236010BD0000001002400020024005
:1004A0000000FFF8FFFFF6FE08ED00E000127A0002
:1004B0000000002000093D000400002070B5044643
:1004C0000D46164632462946204601F0C3FF01F08C
:1004D000FEFF70BD2DE9F05F04460D46904699463B
:1004E000A8EB0400401C00F0FF0AA9EB0500401C2B
:1004F00000F0FF0B00260EE0002708E0AA19D1B299
:10050000E219D0B20A9A01F0A5FF781CC7B257458C
:10051000F4DB701CC6B25E45EEDB01F0D8FFBDE82F
:10052000F09F2DE9FF4F85B081468A460020039059
:1005300083460798A0EB09050898A0EB0A06CDF8BA
:100540000890CDF804A0002D01DD012705E00DB9CC
:10055000002702E04FF0FF376D42002E02DD4FF022
:10056000010806E016B94FF0000802E04FF0FF382E
:100570007642B54201DD2C4600E03446002004906E
:100580001EE0019AD1B2029AD0B2129A01F062FF33
:10059000039828440390B3440398A04205DD0398D0
:1005A000001B0390029838440290A34504DDABEB96
:1005B000040B0198404401900498401C80B20490C0
:1005C000611C04988842DCDD01F081FF09B0BDE8C0
:1005D000F08F2DE9F84305460E4617469846089CCD
:1005E00033463A46314628460094FFF79AFF434681
:1005F0002A46314628460094FFF793FF43463A4681
:10060000414628460094FFF78CFF43463A46314660
:1006100038460094FFF785FFBDE8F8832DE9F843DD
:1006200004460D4616461F46DDF820803B463246FE
:1006300029462046CDF80080FFF74CFFBDE8F8833F
:100640002DE9F04104460D4616461F46DDF8188098
:10065000EA19D1B2A219D0B2424601F0FBFEEA1962
:10066000D1B2A21BD0B2424601F0F4FEEA1BD1B2D5
:10067000A219D0B2424601F0EDFEEA1BD1B2A21B94
:10068000D0B2424601F0E6FEAA19D1B2E219D0B2C8
:10069000424601F0DFFEAA19D1B2E21BD0B24246B7
:1006A00001F0D8FEAA1BD1B2E219D0B2424601F045
:1006B000D1FEAA1BD1B2E21BD0B2424601F0CAFE63
:1006C000BDE8F0812DE9F84F81468A4690461E46E6
:1006D000002435467000C0F1030716E0EBB2E2B229
:1006E00051464846CDF80080FFF7AAFF002F04DAF4
:1006F000042000FB0470871D06E0601B042101FB41
:10070000007000F10A076D1E641CAC42E6DD01F0CA
:10071000DEFEBDE8F88F2DE9F84F82468B46914604
:100720001E46002435467000C0F103081DE0274630
:1007300008E0FBB2E2B259465046CDF80090FFF710
:100740007FFF7F1CAF42F4DDB8F1000F05DA042013
:1007500000FB048000F1060806E0601B042101FB99
:10076000008000F10A086D1E641CAC42DFDD01F060
:10077000AEFEBDE8F88F2DE9F84F05460E46174648
:100780009846DDE90A9A0C9C43463A46314628468B
:100790000094FFF7C6FE53464A4641463846009449
:1007A000FFF7BFFE33462A46514648460094FFF7FE
:1007B000B8FEBDE8F88F02780B7803700A707047B6
:1007C0002DE9F04105460E461746984600242C4672
:1007D00006E042463946204601F03CFE601CC4B2A9
:1007E000B442F6DDBDE8F0812DE9FF4F85B000266B
:1007F00000279DF818009DF82010884207DD08A901
:1008000006A8FFF7D8FF07A905A8FFF7D4FF9DF8B2
:1008100020009DF84C10884207DD08A913A8FFF7B7
:10082000CAFF07A912A8FFF7C6FF9DF818009DF898
:100830002010884207DD08A906A8FFF7BCFF07A91A
:1008400005A8FFF7B8FF9DF818009DF84C108842E6
:1008500035D19DF81400039004909DF81C009DF87C
:100860001010884203DA9DF81C00049008E09DF8FF
:100870001C009DF80C10884202DD9DF81C000390BE
:100880009DF848009DF81010884203DA9DF8480052
:10089000049008E09DF848009DF80C10884202DDA5
:1008A0009DF8480003909DF818209DF80C109DF8C5
:1008B0001000149BFFF784FF09B0BDE8F08F9DF88E
:1008C0001C009DF81410A0EB010B9DF820009DF872
:1008D0001810401A02909DF848009DF81410451A0F
:1008E0009DF84C009DF81810A0EB01099DF84800F8
:1008F0009DF81C10A0EB010A9DF84C009DF82010FB
:10090000401A01909DF820009DF84C10884202D1B9
:100910009DF8208004E09DF82000401E00F0FF08B4
:100920009DF8184024E0029896FBF0F09DF8141012
:100930000844C0B2049097FBF9F09DF814100844E5
:10094000C0B203905E442F449DF810009DF80C1037
:10095000884203DD03A904A8FFF72DFF22469DF876
:100960000C109DF81000149BFFF72AFF601CC4B206
:100970004445D8DD9DF82000201A00FB0AF69DF8BA
:100980001800201A00FB05F724E0019896FBF0F010
:100990009DF81C100844C0B2049097FBF9F09DF834
:1009A00014100844C0B2039056442F449DF8100020
:1009B0009DF80C10884203DD03A904A8FFF7FBFE95
:1009C00022469DF80C109DF81000149BFFF7F8FECE
:1009D000601CC4B29DF84C008442D6DD01F077FD66
:1009E00000BF69E72DE9F84F06460F469246994643
:1009F000DDF828B04FF0000800240025AAF12000FF
:100A000000F0FF087F2E02DD0026B81CC7B2B9F146
:100A1000100F30D100242BE0BBF1000F05D004EB08
:100A20000810F849085C009006E004EB0810F5494E
:100A3000085CC043C0B20090002515E0802028412A
:100A40000099084038B13A19D1B27219D0B20122D6
:100A500001F000FD06E03A19D1B27219D0B20022BD
:100A600001F0F8FC681CC5B2082DE7DB601CC4B2BD
:100A7000102CD1DB35E0B9F1080F30D100242BE088
:100A8000BBF1000F05D0E04800EBC800005D00900E
:100A900006E0DD4800EBC800005DC043C0B2009036
:100AA000002515E0802028410099084038B13A1906
:100AB000D1B27219D0B2012201F0CCFC06E03A1991
:100AC000D1B27219D0B2002201F0C4FC681CC5B2C8
:100AD000082DE7DB601CC4B2082CD1DB01E0BDE8C7
:100AE000F88F01F0F4FC00BFF9E72DE9F84F054657
:100AF000894616461C46DDF828A00027102C05D193
:100B0000204604EBD071C1F347080BE0082C07D155
:100B1000204604EBD0714910891C01F0FF0801E068
:100B2000BDE8F88F13E0CDF800A0F25D23464946FA
:100B30002846FFF757FF05EB0800C5B2782D04DD06
:100B4000002509EB040000F0FF09781CC7B2F05D36
:100B50000028E8D100BFE3E710B50246012000E01D
:100B600050430B00A1F10104E1B2F9D110BD2DE910
:100B7000FF4F83B0804692461E46DDE9104B0020B1
:100B80000290102C05D1204604EBD071C1F3470729
:100B90000BE0082C06D1204604EBD0714910891CCB
:100BA000CFB202E007B0BDE8F08F002530E0701B47
:100BB000401EC1B20A20FFF7CFFFBAFBF0F00A21B6
:100BC000B0FBF1F201FB1209029890B9701EA84225
:100BD0000FDDB9F1000F0AD107FB0581C8B223462A
:100BE0002022CDF800B00499FFF7FCFE0EE00120B2
:100BF000029009F13001CAB207FB0581C8B2234651
:100C0000CDF800B00499FFF7EDFE00BF681CC5B237
:100C1000B542CCDB00BFC5E72DE9FF4F83B080466E
:100C2000894692460D200190002562E005EB0510F3
:100C3000764911F810009AF80010884257D105EB58
:100C40000510724901EB400040789AF80110884283
:100C50004DD1002448E0069840B105EB05106B49E2
:100C600001EB4000801C005D029009E005EB0510DF
:100C7000664901EB4000801C005DC043C0B2029099
:100C800000262DE0802030410299084098B1274687
:100C900004EBD77209EB6202D1B2A34604EBDB721C
:100CA0005210A4EB420208EBC2023244D0B201223D
:100CB00001F0D0FB12E0274604EBD77209EB620289
:100CC000D1B2A34604EBDB725210A4EB420208EB54
:100CD000C2023244D0B2002201F0BCFB701CC6B28A
:100CE000082ECFDB601CC4B2202CB4DB04E0681CEF
:100CF000C5B20198854299DB00BF01F0E8FB07B05F
:100D0000BDE8F08F2DE9FE4F0746884691469B4689
:100D10000620029000256DE005EB850000EB4510F4
:100D20003B4911F8100099F80010884260D105EB9A
:100D3000850000EB4510364901EB4000407899F8FA
:100D40000110884254D100244FE0BBF1000F0AD0BB
:100D500005EB850000EB45102D4901EB4000801CA0
:100D600010F804A00BE005EB850000EB45102849C6
:100D700001EB4000801C005DC04300F0FF0A00262C
:100D80002FE08020304100EA0A00A0B1032094FB4C
:100D9000F0F04044C0B20190032094FBF0F100FB5E
:100DA000114007EBC0003044C0B20122009001990D
:100DB00001F050FB13E0032094FBF0F04044C0B27C
:100DC0000190032094FBF0F100FB114007EBC00001
:100DD0003044C0B200220090019901F03BFB701C2E
:100DE000C6B2082ECDDB601CC4B2482CADDB04E0DB
:100DF000681CC5B2029885428EDB00BF01F067FB1C
:100E0000BDE8FE8FB0370008B8340008A03D0008E8
:100E10005A3F00082DE9FF4F83B08046894692462D
:100E200006200190002566E005EB85107C4911F84D
:100E300010009AF8001088425BD105EB85107849C4
:100E400001EB400040789AF80110884251D100240B
:100E50004CE0069840B105EB8510714901EB40006C
:100E6000801C005D029009E005EB85106C4901EBE8
:100E70004000801C005DC043C0B20290002731E0FA
:100E80008020384102990840A8B12646E21704EBB9
:100E9000927209EBA202D1B2A346E21704EB92725E
:100EA0009210A4EB820208EBC2023A44D0B20122B3
:100EB00001F0D0FA14E02646E21704EB927209EB37
:100EC000A202D1B2A346E21704EB92729210A4EBF5
:100ED000820208EBC2023A44D0B2002201F0BAFA10
:100EE000781CC7B2082FCBDB601CC4B2802CB0DBEF
:100EF00004E0681CC5B20198854295DB00BF01F093
:100F0000E6FA07B0BDE8F08F2DE9F04106460F463E
:100F100014461D46DDF8188026E0102C06D1434605
:100F20002A4639463046FFF777FE13E0182C06D1E3
:100F300043462A4639463046FFF7E4FE0AE0202CB5
:100F400006D143462A4639463046FFF763FF01E0A3
:100F5000BDE8F0813019C6B2C4F18000B04202DAB7
:100F600000263819C7B2AD1C28780028D5D100BF9B
:100F7000EEE72DE9F84F8046894617469A46DDF898
:100F800028B0002545E000243AE00B9850B1F81D48
:100F9000C11700EB5171C91005FB01411BF801108D
:100FA00000910BE0F81DC11700EB5171C91005FB52
:100FB00001411BF80110C943C9B2009100261BE092
:100FC000802030410099084050B109EB0502D1B2B0
:100FD00008EBC4023244D0B2012201F03BFA09E02E
:100FE00009EB0502D1B208EBC4023244D0B20022B0
:100FF00001F030FA701CC6B2082EE1DB601CC4B2EE
:10100000F81DC11700EB5171B4EBE10FBDDB681C9B
:10101000C5B25545B7DB01F05AFABDE8F88F0000BC
:101020001641000808B501201023FEA200210090FF
:101030001C20FFF75AFD01201023FDA21946009045
:101040000C20FFF752FD01201023FDA2202100906B
:101050002820FFF74AFD01201023FBA23021009039
:101060000420FFF742FD40F2DC5001F0BAFB40F2F1
:10107000DC5001F0B6FB08BD08B500203F237F22FD
:1010800001460090FFF726FA01201023F2A20A2160
:1010900000900846FFF729FD4FF47A7001F0A1FB9C
:1010A00001203F237F22002100900846FFF712FA1B
:1010B00040F2DC5001F095FB08BD08B500203F234D
:1010C0001A4601460090FFF705FA01203F237F22D0
:1010D000002100904020FFF7FDF901203A231A4635
:1010E000052100900846FFF774FA00203A237A227F
:1010F000052100904420FFF76CFA4FF47A7001F05C
:1011000070FB01203A231A46052100900846FFF79C
:1011100085FA00203A237A22052100904420FFF727
:101120007DFA40F2DC5001F05CFB08BD08B5002000
:101130003F231A4601460090FFF7CCF901203F23D8
:101140007F22002100904020FFF7C4F91B230122D9
:101150001F210846FFF7B6FA1B2300221F215F203C
:10116000FFF7B0FA4FF47A7001F03BFB1B2301222A
:101170001F210846FFF7CFFA1B2300221F215F2003
:10118000FFF7C9FA40F2DC5001F02BFB08BD0EB5A9
:1011900000203F231A4601460090FFF79BF90120EB
:1011A0003F237F22002100904020FFF793F9012088
:1011B0003A21009105231F22CDE901101846FFF7BF
:1011C000DAFA00203A217A220523CDE900210290A3
:1011D0005F224420FFF7CFFA4FF47A7001F001FB51
:1011E00001203A21009105231F22CDE90110184664
:1011F000FFF7FAFA00203A217A220523CDE90021EF
:1012000002905F224420FFF7EFFA40F2DC5001F039
:10121000E8FA0EBD08B50120082391A2052100902F
:101220000020FFF762FC0120102395A219210090F5
:101230000020FFF75AFC4FF47A7001F0D2FA012037
:10124000082397A2052100900020FFF74EFC012003
:1012500010239BA2192100900020FFF746FC40F2CA
:10126000DC5001F0BEFA08BD1CB500201F237F2210
:1012700001460090FFF72EF90120082398A20021D3
:1012800000900846FFF731FC012008210A239E4AFE
:10129000CDE9001010211E20FFF769FC4FF47A7091
:1012A00001F09FFA002001F034F90120102397A2E9
:1012B000002100900846FFF718FC012010210A23A6
:1012C000914ACDE9001020212820FFF750FC40F280
:1012D000DC5001F086FA002001F01BF91CBD08B5B6
:1012E0000120082393A2002100902D20FFF7FDFB91
:1012F000012092A31022142100901046FFF704FE53
:101300004FF47A7001F06DFA002001F002F901202B
:1013100008238EA2002100902D20FFF7E6FB01207C
:101320008CA31822142100901020FFF7EDFD4FF43C
:101330007A7001F056FA002001F0EBF80120082342
:1013400087A2002100902D20FFF7CFFB012081A371
:101350002022142100900020FFF7D6FD4FF47A7070
:1013600001F03FFA002001F0D4F808BD1CB50120BF
:101370007D4940238022CDE9001000210846FFF777
:10138000F8FD4FF47A7001F02CFA012077494023E0
:101390008022CDE9001000210846FFF7EAFD4FF456
:1013A0007A7001F01EFA0120714940238022CDE9B4
:1013B000001000210846FFF7DCFD4FF47A7001F0C1
:1013C00010FA1CBD0EB501200F237F2200210090D2
:1013D0000846FFF77FF8002066A310220146009020
:1013E0002020FFF791FD0623012218210A20FFF794
:1013F00069F90323012218210A20FFF763F9062364
:10140000012228210A20FFF75DF903230122282168
:101410000A20FFF757F90623012238210A20FFF797
:1014200051F9ADE04F4C4544205445535400000061
:10143000302E3936222053534431333036000000E9
:1014400036345831323800007777772E6C63647702
:10145000696B692E636F6D00424C41434B00000085
:101460003678383A6162636465666768696A6B6C8E
:101470006D6E6F707172737475767778797A00001B
:10148000387831363A6162636465666768696A6BA9
:101490006C6D6E6F707172737475767778797A008F
:1014A0003678383A4142434445464748494A4B4CCE
:1014B0004D4E4F505152535455565758595A00009B
:1014C000387831363A4142434445464748494A4BC9
:1014D0004C4D4E4F505152535455565758595A002F
:1014E0003678383A2122232425262728292A2B2C0E
:1014F0002D2E2F3A3B3C3D3E3F405B5D5C5E5F6086
:101500007E7B7D7C00000000D2029649387831361F
:101510003A2122232425262728292A2B2C2D2E2F39
:101520003A3B3C3D3E3F405B5D5C5E5F607E7B7D69
:101530007C0000003136783136000000C8ABB6AF11
:10154000B5E7D7D3BCBCCAF500000000323478320E
:1015500034000000C8ABB6AFB5E7D7D30000000039
:1015600033327833320000001400002014040020CD
:1015700014080020CFB5CDB3C9E8D6C300000000E1
:101580000323012238210A20FFF79CF801201023B1
:10159000FBA2194600901420FFF7A7FA0120F9A337
:1015A0001022114600902420FFF7AEFC01201023EA
:1015B000F7A2202100901420FFF797FA0120F5A34D
:1015C0001022202100902420FFF79EFC01201023F0
:1015D000F3A2302100901420FFF787FA0120F1A335
:1015E0001022302100902420FFF78EFC01203F23A1
:1015F0007F22002100900846FEF7EBFF01203F23E9
:1016000075220F2100901046FEF78BFF0120142158
:101610007E221023CDE9002102907A227620FFF766
:10162000E3F801203A217E223E23CDE900210290F9
:101630007A227620FFF7D8F80323012218210A2006
:10164000FFF769F801201F23632210210090142066
:10165000FEF740FF00201023C9A219460090142075
:10166000FFF743FA0020C7A3102211460090242060
:10167000FFF74AFC01201C237E22172100907620D0
:10168000FEF728FF40F2DC5001F0ABF80323002204
:1016900018210A20FFF73FF80323012218210A200E
:1016A000FFF710F800201F23632210210090142060
:1016B000FEF710FF01201023B1A21946009014205C
:1016C000FFF713FA0120AFA3102211460090242047
:1016D000FFF71AFC00201C237E22172100907620A1
:1016E000FEF7F8FE0323012228210A20FFF713F852
:1016F00001202F236322202100901420FEF7EAFE10
:1017000000201023A2A2202100901420FFF7EDF961
:101710000020A0A31022202100902420FFF7F4FB3A
:1017200001202A237E22252100907620FEF7D2FE7A
:1017300040F2DC5001F055F80323002228210A2052
:10174000FEF7E9FF0323012228210A20FEF7BAFF52
:1017500000202F236322202100901420FEF7BAFEE0
:10176000012010238AA2202100901420FFF7BDF948
:10177000012088A31022202100902420FFF7C4FB21
:1017800000202A237E22252100907620FEF7A2FE4B
:101790000323012238210A20FEF7BDFF01203F2349
:1017A0006322302100901420FEF794FE00201023C5
:1017B0007BA2302100901420FFF797F9002079A335
:1017C0001022302100902420FFF79EFB01203723B8
:1017D0007E22322100907620FEF77CFE40F2DC5023
:1017E00000F0FFFF0EBD7CB5714801F0BBFD01208C
:1017F0000A237F22194600900020FEF792FE012066
:101800003F231A460B2100901846FEF78AFE01205E
:1018100024237F22194600903F20FEF782FE0120FC
:10182000082364A2014600900020FFF75EF9012022
:10183000082363A2014600904E20FFF756F90120CD
:10184000082362A2352100900E20FFF74EF90120F7
:10185000082360A20D2100904120FFF746F90223E2
:10186000012219216C20FEF72DFF012010235BA21D
:10187000142100907120FFF738F90120102358A29D
:10188000142100904820FFF730F90120082356A2C8
:10189000272100904120FFF728F90120102354A2AE
:1018A0002E2100904420FFF720F9012052492023E7
:1018B0003322CDE9001010210620FFF75AFB002546
:1018C0005BE0FEF7A5FC044601201021CDE90010E5
:1018D000E01704EB90708010A4EB80020123142128
:1018E0004820FFF744F9FEF793FC0A2190FBF1F240
:1018F00001FB12040120102103462246CDE900100D
:1019000014215020FFF733F9FEF782FC0A2190FBE7
:10191000F1F201FB12040120102103462246CDE919
:10192000001014216020FFF722F9FEF771FC0A2154
:1019300090FBF1F201FB1204012010210346224624
:10194000CDE900102E214420FFF711F9FEF760FCCD
:101950000A2190FBF1F201FB120401201021034641
:101960002246CDE900102E214C20FFF700F94FF45C
:10197000FA7000F036FF681CC5B20F2DA1DB7CBDEC
:10198000412E0000D2F4C1BFC9E8D6C30000000058
:10199000422E0000D1D5C9ABC9E8D6C30000000073
:1019A000432E0000CDF8C2E7C9E8D6C3000000000E
:1019B00040E20100323031392D30382D313700000E
:1019C000536174757264617900000000436C6F7537
:1019D0006479000054454D500000000043000000B1
:1019E00033322E3500000000504D322E35000000FD
:1019F000393075672F6D3300140C002008B50120B5
:101A00000CA31022002100900846FFF77DFA012068
:101A10001023AFF28802194600900020FFF765F806
:101A20000120AFF298031022114600905020FFF7DA
:101A30006BFA08BDC4E3B2BBC4DCD7F6CED2B5C4E2
:101A4000CAAB000008B50121082001F0A1FAC020AE
:101A5000ADF8000010208DF8030003208DF802007F
:101A60006946FE4800F0D8FF0120FD490860FD49A5
:101A7000C1F89C0108BD08B5FB4800686421B0FBB3
:101A8000F1F0FA490870084600780A282BD2DFE8FE
:101A900000F005060A0E12161A1E222623E0F4A0F4
:101AA000F44908601FE0F4A0F24908601BE0F3A0CD
:101AB000F049086017E0F2A0EE49086013E0F1A0D9
:101AC000EC4908600FE0F0A0EA4908600BE0EFA0E5
:101AD000E849086007E0EEA0E649086003E0EDA0F1
:101AE000E449086000BF00BFDF4800680A21B0FB7E
:101AF000F1F0B0FBF1F201FB1200DC49087008467E
:101B000000780A282ED2DFE800F005090D1115191A
:101B10001D212529E0A0E149086023E0D4A0DF4988
:101B200008601FE0D4A0DD4908601BE0D3A0DB49BA
:101B3000086017E0D2A0D949086013E0D1A0D749C6
:101B400008600FE0D0A0D54908600BE0CFA0D349D2
:101B5000086007E0CEA0D149086003E0CDA0CF49DE
:101B6000086000BF00BFC04800680A21B0FBF1F266
:101B700001FB1200BD490870084600780A282ED2E1
:101B8000DFE800F005090D1115191D212529C2A056
:101B9000C349086023E0B6A0C14908601FE0B6A0B1
:101BA000BF4908601BE0B5A0BD49086017E0B4A0BC
:101BB000BB49086013E0B3A0B94908600FE0B2A0C8
:101BC000B74908600BE0B1A0B549086007E0B0A0D4
:101BD000B349086003E0AFA0B149086000BF00BF8F
:101BE000B04800686421B0FBF1F0A04908700846D5
:101BF00000780A282BD2DFE800F005060A0E12163C
:101C00001A1E222623E09AA0A74908601FE09AA086
:101C1000A54908601BE099A0A349086017E098A0B7
:101C2000A149086013E097A09F4908600FE096A0C3
:101C30009D4908600BE095A09B49086007E094A0CF
:101C40009949086003E093A09749086000BF00BF6E
:101C5000944800686421B0FBF1F08449087008469C
:101C600000780A282ED2DFE800F005090D111519B9
:101C70001D21252988A08D49086023E07CA08B497F
:101C800008601FE07CA0894908601BE07BA08749B1
:101C9000086017E07AA08549086013E079A08349BD
:101CA00008600FE078A0814908600BE077A07F49C9
:101CB000086007E076A07D49086003E075A07B49D5
:101CC000086000BF00BF774800686421B0FBF1F0F6
:101CD00066490870084600780A282ED2DFE800F02E
:101CE00005090D1115191D2125296BA070490860E2
:101CF00023E05FA06E4908601FE05FA06C490860A8
:101D00001BE05EA06A49086017E05DA068490860B2
:101D100013E05CA0664908600FE05BA064490860BE
:101D20000BE05AA06249086007E059A060490860CA
:101D300003E058A05E49086000BF00BF01201023E7
:101D40005CA2202100902820FEF7CFFE0120102366
:101D500058A2302100902820FEF7C7FE012057A38B
:101D60001022202100900020FFF7CEF80120102340
:101D700000904048202102682820FEF7B6FE01208E
:101D8000102300904548202102683020FEF7ADFE68
:101D9000012010234BA2202100903820FEF7A5FE41
:101DA0000120102300903E48202102684020FEF7C9
:101DB0009CFE012044A31022202100904820FFF720
:101DC000A3F8012041A31022302100900020FFF74A
:101DD0009BF801201023009033483021026828200E
:101DE000FEF783FE01201023009030483021026866
:101DF0000846FEF77AFE0120102332A2302100901F
:101E00003820FEF772FE0120102300902848302170
:101E100002684020FEF769FE01202EA31022302127
:101E200000904820FFF770F808BD10B50B48006817
:101E300020F07040094908600846006840F04050B2
:101E4000086000200649091D0860042000F0C9FC54
:101E500001200449C1F8980104203DE0000C014034
:101E60009881214200802142000D0020040D0020B5
:101E700031000000080D0020320000003300000097
:101E8000340000003500000036000000370000007C
:101E90003800000039000000300000000C0D002068
:101EA000100D0020FC0C0020140D0020180D002047
:101EB0001C0D00202020202000000000CEC2B6C84B
:101EC000A3BA00002E000000A1E60000CAAAB6C80E
:101ED000A3BA0000A3A5000000F083FC0120FE4986
:101EE0000860042000F07DFC10BD10B5FB480068C0
:101EF00020F07040F94908600846006840F0405002
:101F000008600020F449091F0860042000F045FC27
:101F10000120F349C1F89C01042000F03EFC01209F
:101F2000ED49091F0860042000F037FC0020EC494F
:101F3000C1F89801042000F030FC0020E649086058
:101F4000042000F02AFC10BD70B5002400250026F6
:101F50000020E149091F0860E048006820F0704057
:101F6000DE4908600846006840F000400860042030
:101F700000F037FC00BF1AE00120D749091F0860B4
:101F8000032000F02EFC0026D548D0F81C0108B133
:101F9000012600E0002646EA4400C4B20020CE49F3
:101FA000091F0860032000F01CFC681CC5B2082D46
:101FB000E2DBCA48006820F07040C8490860084663
:101FC000006840F0004008600A2000F00AFC20464B
:101FD00070BD10B5C148006820F07040BF4908606E
:101FE0000846006840F0405008600020BA49091FC8
:101FF0000860042000F0D1FB0020B949C1F89C0121
:10200000042000F0CAFB0120B349091F0860042026
:1020100000F0C3FB0020B249C1F89801042000F091
:10202000BCFBAE48006820F07040AC490860084630
:10203000006840F00040086010BD70B50025002425
:102040000020A549091F0860A448006820F07040DE
:10205000A24908600846006840F00040086004207B
:1020600000F09BFB01209E49C1F89801042000F07C
:1020700094FB01E0601CC4B297488038006808B146
:10208000642CF7DB00209449091F0860042000F04D
:1020900084FB642C00DA0125284670BD70B5044627
:1020A0008E48006820F070408C490860084600683F
:1020B00040F04050086000251BE000208649091FC1
:1020C0000860052000F08DFB04F0800018B10120AD
:1020D0008149086002E000207F49086001207E49B4
:1020E000091F0860052000F07CFB6006040E681CD8
:1020F000C5B2082DE1DB00207749091F08600420E4
:1021000000F04BFB7548006820F070407349086090
:102110000846006840F000400860042000F03DFBE5
:1021200070BD10B56D48006820F070406B490860C4
:102130000846006840F04050086001206649091FC9
:102140000860042000F04DFB01206549C1F89C01A6
:10215000042000F046FB00205F490860042000F0E6
:1021600040FB00205E49C1F89801042000F039FBD3
:1021700010BD10B5002404E000205A490855601C29
:10218000C4B2062CF8DBFFF7CCFF7120FFF786FF07
:10219000FFF753FF54490870FFF7D6FE5149087006
:1021A000FFF717FFFFF7D0FE4E494870FFF711FF0A
:1021B000FFF7CAFE4B498870FFF70BFFFFF7C4FE1D
:1021C0004849C870FFF705FFFFF7BEFE4549087193
:1021D000FFF7FFFEFFF7B8FE42494871FFF785FEA3
:1021E000FFF723FE3F48007800F0680008284ED132
:1021F0003C4840783D4908603A488078096840EAA0
:1022000001203A4908603748C078096840EA01204F
:1022100036490860084600680009086008460068FA
:102220004FF47A714843000D304908602D48C0785A
:102230002F4908600846007800F00F000860294820
:102240000079096840EA0120294908602548407959
:10225000096840EA012026490860084600684FF4F2
:10226000FA6148438910C1EB1050214908601F48AA
:102270000088000A1F4908701C48007848701C48F4
:102280000088000A88701A480078C87005E0FF20AE
:102290001849087048708870C870FFF7ECFB10BDD3
:1022A00010B5FFF73EFF7020FFF7F8FEFFF7C5FE01
:1022B0000D490870AC20FFF7F1FEFFF7BEFE0A499A
:1022C00008703320FFF7EAFEFFF7B7FE06490870F3
:1022D0000020FFF7E3FE0FE09C812142000C01404B
:1022E00000802142F50C0020F40C0020FC0C0020A2
:1022F000000D0020200D0020FFF79FFE29490870E7
:10230000FFF793FD10BD10B5FFF70BFF7020FFF72F
:10231000C5FEFFF792FE23490870E120FFF7BEFEDD
:10232000FFF78BFE1F4908700820FFF7B7FEFFF785
:1023300084FE1C4908700020FFF7B0FEFFF77DFE09
:1023400018490870FFF771FD10BD10B5FFF7E9FEE1
:102350007020FFF7A3FEFFF770FE12490870BA2045
:10236000FFF79CFEFFF769FE0E490870FFF75DFD61
:1023700010BD10B50A2000F034FAFFF7E6FF0A207E
:1023800000F02FFAFFF7BFFF0A2000F02AFAFFF74C
:1023900087FF502000F025FAFFF7EBFE052000F044
:1023A00020FA10BDF40C002070B504460D462DB186
:1023B0004FF48061AF4800F0DCFB04E04FF4806133
:1023C000AC4800F0D8FB4FF40061AA4800F0D3FB02
:1023D000E1B2A94800F054F94FF40061A54800F0BB
:1023E000C8FB70BD70B505460C462646E11704EBE8
:1023F0005171C91001F1B0000021FFF7D5FFA91CF0
:10240000C1F3031141F010000021FFF7CDFFA91C1B
:1024100001F00F000021FFF7C7FF70BD10B50021CC
:102420008D20FFF7C1FF00211420FFF7BDFF002121
:10243000AF20FFF7B9FF10BD10B500218D20FFF7C9
:10244000B3FF00211020FFF7AFFF0021AE20FFF700
:10245000ABFF10BDF0B503461446E4B1CD1701EB58
:102460005575ED1003EBC515844E755D0A46CE1704
:1024700001EB5676F610A1EBC6070126BE40F6B278
:1024800035430846CE1701EB5676F61003EBC61619
:102490007A4FBD551AE0CD1701EB5575ED1003EBE2
:1024A000C515764E755D0A46CE1701EB5676F610C9
:1024B000A1EBC6070126BE40B5430846CE1701EB87
:1024C0005676F61003EBC6166C4FBD55F0BD70B5D1
:1024D00000241BE004F1B0000021FFF765FF00219C
:1024E0000846FFF761FF00211020FFF75DFF002580
:1024F00008E005EBC411614A505C0121FFF754FF6D
:10250000681CC5B2802DF4DB601CC4B2082CE1DB72
:1025100070BD10B5044634B1FF224FF480615748B6
:1025200000F03EFF04E04FF48061544800F040FFAB
:10253000FFF7CDFF10BD10B54FF480514D4800F0AE
:1025400018FB642000F04DF94FF48051494800F029
:1025500012FB642000F045F94FF48051454800F02B
:1025600008FB10BD08B50121082000F011FD4FF453
:10257000E050ADF8000010208DF8030003208DF826
:10258000020069463B4800F047FA4FF4E0513948F1
:1025900000F0EFFA08BD10B500F096F8FFF7E2FF83
:1025A000C82000F01EF9FFF7C6FF0021AE20FFF79C
:1025B000FBFE00210846FFF7F7FE00211020FFF781
:1025C000F3FE00214020FFF7EFFE0021B020FFF7CF
:1025D000EBFE00218120FFF7E7FE0021FF20FFF73F
:1025E000E3FE0021A120FFF7DFFE0021A620FFF778
:1025F000DBFE0021A820FFF7D7FE00213F20FFF7D8
:10260000D3FE0021C820FFF7CFFE0021D320FFF723
:10261000CBFE00210846FFF7C7FE0021D520FFF7BB
:10262000C3FE00218020FFF7BFFE0021D920FFF765
:10263000BBFE0021F120FFF7B7FE0021DA20FFF7F3
:10264000B3FE00211220FFF7AFFE0021DB20FFF7D1
:10265000ABFE00213020FFF7A7FE00218D20FFF701
:10266000A3FE00211420FFF79FFE0021AF20FFF7FB
:102670009BFE10BD000C0140003800403C0D0020C6
:10268000024600BF108900F002000028FAD09181B4
:1026900000BF108900F001000028FAD09089C0B274
:1026A000704702884FF6C7731A400280012902D191
:1026B0000288028003E0028842F020020280028841
:1026C00042F040020280704700B587B00121092026
:1026D00000F05EFC4FF42040ADF8040003208DF8BC
:1026E000060018208DF8070001A91D4800F094F994
:1026F0004FF48040ADF8040048208DF80700032017
:102700008DF8060001A9164800F086F9012188031A
:1027100000F04BFC0020ADF808004FF48270ADF8DB
:102720000A000020ADF80C000220ADF80E000120D8
:10273000ADF810004002ADF812000020ADF8140012
:10274000ADF816000720ADF8180002A9054800F002
:10275000A9FC0121034800F04AFD07B000BD0000BC
:10276000000C01400038004010B56FF0040000F08C
:10277000D4F82E4800682E49B0FBF1F02D490870BE
:102780000846007800EB4001C1EBC0104FF6FF7126
:1027900001EAC0002849088010BD0146254A127888
:1027A0004A434FF0E0235A6100229A611A461269A7
:1027B00042F001021A6100BF4FF0E022106900F000
:1027C00001021AB100F48032002AF5D04FF0E02265
:1027D000126922F001024FF0E0231A6100229A618F
:1027E00070470146144A12884A434FF0E0235A6169
:1027F00000229A611A46126942F001021A6100BF72
:102800004FF0E022106900F001021AB100F48032AA
:10281000002AF5D04FF0E022126922F001024FF0B9
:10282000E0231A6100229A61704700000000002036
:1028300000127A00240D0020260D00200948804750
:1028400009480047FEE7FEE7FEE7FEE7FEE7FEE792
:10285000FEE7FEE7FEE7FEE704480549054A064BAA
:1028600070470000BB0300083101000880120020FF
:10287000801800208014002080140020314901437A
:10288000314A1160704770B5002100230F22C478CF
:1028900004B32D4C246804F4E064C4F5E064210A18
:1028A000C1F10403CA40447804FA03F18478144067
:1028B00021430901254C0678A155047804F01F0531
:1028C0000124AC4005786D11AD0005F1E025C5F897
:1028D000004109E0047804F01F050124AC401C4DC0
:1028E0000678761145F8264070BD1A4A0A40024320
:1028F000154B1B1F1A60704739B1134A121D12681D
:102900000243114B1B1D1A6006E00F4A121D12688C
:1029100082430D4B1B1D1A607047042808D14FF0ED
:10292000E021096941F004014FF0E022116107E064
:102930004FF0E021096921F004014FF0E02211611C
:10294000704700000000FA050CED00E000E400E034
:1029500080E100E080FFFF1F10B50446CC488442B0
:1029600008D10121042000F02DFB0021042000F0FB
:1029700029FB46E0C748844208D10121082000F025
:1029800021FB0021082000F01DFB3AE0C2488442F0
:1029900008D10121102000F015FB0021102000F0CB
:1029A00011FB2EE0BD48844208D10121202000F017
:1029B00009FB0021202000F005FB22E0B8488442FA
:1029C00008D10121402000F0FDFA0021402000F054
:1029D000F9FA16E0B348844208D10121802000F0C2
:1029E000F1FA0021802000F0EDFA0AE0AE488442BE
:1029F00007D10121801500F0E5FA0021A01500F0B3
:102A0000E1FA10BD10B50121084600F0DBFA002103
:102A1000012000F0D7FA10BD2DE9F0410246002553
:102A20000026002000230024002791F803C00CF0AA
:102A30000F0591F803C00CF0100CBCF1000F03D08F
:102A400091F802C04CEA050591F800C0BCF1000FF6
:102A500031D0146800202BE04FF0010C0CFA00F389
:102A6000B1F800C00CEA03069E4220D183004FF06B
:102A70000F0C0CFA03F7BC4305FA03FC4CEA040400
:102A800091F803C0BCF1280F06D14FF0010C0CFAED
:102A900000FCC2F814C00AE091F803C0BCF1480F72
:102AA00005D14FF0010C0CFA00FCC2F810C0401C1C
:102AB0000828D1D31460B1F800C0BCF1FF0F34DD99
:102AC000546800202EE000F1080C4FF0010808FACD
:102AD0000CF3B1F800C00CEA03069E4221D183003A
:102AE0004FF00F0C0CFA03F7BC4305FA03FC4CEA59
:102AF000040491F803C0BCF1280F05D100F1080CC3
:102B000008FA0CF8C2F8148091F803C0BCF1480F21
:102B100007D100F1080C4FF0010808FA0CF8C2F8D0
:102B20001080401C0828CED35460BDE8F0814FF6D9
:102B3000FF710180022181700421C170704702463B
:102B4000002093680B400BB1012000E0002070478B
:102B50000146886880B2704702460020D3680B4067
:102B60000BB1012000E0002070470146C86880B228
:102B7000704701617047416170470AB1016100E02F
:102B800041617047C16070474FF480320A438261EF
:102B90008161826182698269704702460020434BED
:102BA00018684FF68073184040EA021008433F4B04
:102BB000186070473E49C8617047F0B50A46002367
:102BC00000240021002500F00046B6F1004F02D19C
:102BD000364EF16901E0354E7168C0F3034583B2AA
:102BE00000F44016B6F5401F08D121F070612F4E59
:102BF000766826F070662D4F7E6012E000F4801635
:102C0000B6F5801F06D1032606FA05F4A14341F06C
:102C1000706106E0460D360103FA06F6B14341F055
:102C2000706122B1460D360103FA06F6314300F019
:102C30000046B6F1004F02D11C4EF16101E01B4E7F
:102C40007160F0BD30B500228B071C0F0F2303FA13
:102C500004F2164B08338C1053F824309343134C72
:102C600008348D1044F8253023468C1053F8243056
:102C70008C07240F00FA04F423430C4C08348D1005
:102C800044F8253030BD0A49DC3108607047000047
:102C900000080140000C01400010014000140140F8
:102CA00000180140001C01400020014000000140CC
:102CB00000002042DF48006840F00100DD49086064
:102CC00008464068DC490840DA4948600846006820
:102CD000DA490840D74908600846006820F4802097
:102CE00008600846406820F4FE0048604FF41F006A
:102CF00088607047CF49096821F48031CD4A11605E
:102D00001146096821F480211160B0F5803F03D09D
:102D1000B0F5802F0ED106E0C649096841F4803134
:102D2000C44A116007E0C349096841F4A021C14ABF
:102D3000116000E000BF00BF704710B501460022DF
:102D4000002300204A11012A02D1BA4C236806E070
:102D5000022A02D1B74C236A01E0B64C636A01F043
:102D60001F02012494401C400CB1012000E000200F
:102D700010BD38B5002000900024002500BF312090
:102D8000FFF7DBFF05460098401C00900098B0F567
:102D9000A06F01D0002DF2D03120FFF7CEFF08B197
:102DA000012400E00024204638BD01460020A14A4D
:102DB000106820F0F80040EAC10010607047A04998
:102DC00008607047024600209A4B586820F47C1037
:102DD00042EA01031843974B5860704798490866C8
:102DE000704701460020934A506820F003000843D2
:102DF000506070478F48406800F00C0070470146F3
:102E000000208C4A506820F0F00008435060704762
:102E100001460020874A506820F4E0600843506073
:102E2000704701460020834A506820F4605040EA11
:102E3000C1005060704729B17E4A527A02437D4BEF
:102E40005A7204E07B4A527A82437A4B5A72704734
:102E50007B49D8310860704701460020754A5068A8
:102E600020F440400843506070470021714A2032EE
:102E70001170704A82F82010012802D004280AD16B
:102E800004E001216B4A2032117005E00521694AF6
:102E90002032117000E000BF00BF70476949086030
:102EA00070476449096A0143624A11627047654983
:102EB00044390860704730B5002100220024002307
:102EC0005C4D6D6805F00C0121B1042905D008297D
:102ED00023D105E05C4D056022E05B4D05601FE0FD
:102EE000544D6D6805F47012524D6D6805F48034D0
:102EF000022505EB92421CB9544D554305600BE089
:102F00004C4D6D6805F400351DB1504D55430560BD
:102F100002E04D4D5543056002E04B4D056000BF9A
:102F200000BF444D6D6805F0F0010909484D6B5C28
:102F30000568DD4045603F4D6D6805F4E061090AB4
:102F4000434D6B5C4568DD4085603A4D6D6805F426
:102F50006051C90A3E4D6B5C4568DD40C560354D2A
:102F60006D6805F44041890B3A4D6B5CC568B5FB53
:102F7000F3F5056130BD29B12E4A526902432D4B4C
:102F80005A6104E02B4A526982432A4B5A617047C6
:102F900029B1284A92690243264B9A6104E0254AE6
:102FA00092698243234B9A61704729B1214AD269C1
:102FB0000243204BDA6104E01E4AD26982431D4B72
:102FC000DA61704729B11B4AD2680243194BDA60B3
:102FD00004E0184AD2688243164BDA60704729B180
:102FE000144A12690243134B1A6104E0114A126930
:102FF0008243104B1A61704712494039086070478C
:103000000F49C86470470B49C87170470948406A46
:1030100040F0807007494862704701460020054A29
:1030200092680A400AB1012000E00020704701497F
:1030300088727047001002400000FFF8FFFFF6FEA4
:10304000000042428004424200127A0000093D0022
:10305000280D0020380D002010B50446BE488442DB
:1030600008D101218014FFF7ADFF0021A014FFF764
:10307000A9FF16E0B948844208D101210014FFF7E6
:10308000AEFF00212014FFF7AAFF0AE0B4488442F3
:1030900007D10121C013FFF7A2FF0021E013FFF7C2
:1030A0009EFF10BD10B50022028802F441520B8829
:1030B0004C8823438C882343CC8823430C892343A7
:1030C0004C8923438C892343CC8923431A430280B0
:1030D000838B4FF2FF74234083830B8A038210BDDE
:1030E0002DE9F04F85B005460C464FF00009022748
:1030F0004FF000084FF0010B0026B246A88B4FF2AC
:1031000040010840A88302202884B5F81C90A068DC
:10311000022801D100BF38E0A08810B94FF0010BA0
:1031200001E04FF0020B8D48854200D100E000BF66
:103130006846FFF7C0FEDDF800A0E088B0F5007F2C
:103140000AD14FEA1A2000EB80004000A168B0FBD2
:10315000F1F0401D86B20BE04FEA4B10BAFBF0F0E5
:1031600000EB80004000A168B0FBF1F0401D86B28A
:103170000A20B6FBF0F606F00108A6EB0800C0F343
:103180004F074FF6FF7000EA0828022F01DBFF2FE0
:1031900002DD02274FF00008E08840EA08003843CB
:1031A0002884A088A18908436188084321880843AE
:1031B00040F4006040EA0909A5F81C9005B0BDE89C
:1031C000F08F0021018041808180C1800181418197
:1031D0008181C181072101827047002101804180E6
:1031E0008180C1800221816000218181704721B1ED
:1031F000028842F04002028004E002884FF6BF736A
:103200001A400280704721B1828B42F4806282832F
:1032100004E0828B4FF6FF331A408283704730B54B
:10322000002400230C110125A540ABB21AB18588FA
:103230001D43858002E085889D43858030BD1AB19D
:1032400083880B43838002E083888B4383807047AD
:10325000818170470146888970474FF6FF6291422D
:1032600004D0028842F48072028004E002884FF6A3
:10327000FF631A400280704721B1828842F0040245
:10328000828004E082884FF6FB731A408280704788
:1032900002884FF2FF731A40028002880A430280BC
:1032A0007047018841F480510180704721B1028844
:1032B00042F40052028004E002884DF6FF731A4087
:1032C0000280704702460020012901D0108B00E0E7
:1032D000908A70470146088A7047B1F5804F04D143
:1032E000028842F48042028004E002884BF6FF73B9
:1032F0001A40028070470246002013890B400BB130
:10330000012000E000207047CA4302817047F0B5F9
:103310000246002000240023002501F00F070126AB
:10332000BE40B4B20B1101269E40B3B2968806EAA5
:1033300003051689264016B10DB1012000E00020DA
:10334000F0BD10B5002201F00F040123A3409AB292
:10335000D343038110BD000000300140003800401D
:10336000003C00400B4910B5A1F17C020A4CC2E9B7
:103370003712372106E000EB104342F82130074BAB
:1033800000FB03400B1EA1F10101F4DC10BD012084
:10339000E8E70000B8110020E119D666CD0D010064
:1033A00002F0FF0343EA032242EA024200F002B8BD
:1033B0004FF000020429C0F0128010F0030C00F05E
:1033C0001E80CCF1040CBCF1020F18BF00F8012BD9
:1033D000A8BF20F8022BA1EB0C0100F010B85FEAA7
:1033E000C17C24BF00F8012B00F8012B48BF00F876
:1033F000012B70477047704770474FF0000200B5CF
:10340000134694469646203922BFA0E80C50A0E807
:103410000C50B1F12001BFF4F7AF090728BFA0E8B5
:103420000C5048BF0CC05DF804EB890028BF40F881
:10343000042B08BF704748BF20F8022B11F0804FC3
:1034400018BF00F8012B7047754600F029F8AE460A
:1034500005006946534620F00700854618B020B5A0
:10346000FFF7FAF9BDE820404FF000064FF00007E3
:103470004FF000084FF0000B21F00701AC46ACE81C
:10348000C009ACE8C009ACE8C009ACE8C0098D4689
:1034900070470446AFF300802046FCF7B2FE000000
:1034A0000048704720120020704700000149182092
:1034B000ABBEFEE726000200000000000000000096
:1034C0001010101000100000282828000000000034
:1034D00028287C287C282800103C503814781000BC
:1034E000004C2C10086060003048502054483400D4
:1034F00030102000000000000810202020100800DC
:103500002010080808102000001054385410000043
:103510000010107C101000000000000000180810BF
:10352000000000007C0000000000000000303000BF
:10353000000408102040000038444C546444380013
:1035400010301010101038003844040810207C008F
:103550007C08100804443800081828487C08080033
:103560007C407804044438001820407844443800F3
:103570007C0408102020200038444438444438009B
:103580003844443C04083000003030003030000043
:1035900000303000301020000810204020100800BB
:1035A00000007C007C0000002010080408102000AF
:1035B0003844040810001000384404345C443800D7
:1035C000102844447C4444007844447844447800BF
:1035D00038444040404438007048444444487000F7
:1035E0007C40407840407C007C4040784040400037
:1035F0003844405C44443C004444447C44444400DB
:1036000038101010101038001C0808080848300046
:1036100044485060504844004040404040407C0096
:10362000446C545444444400444464544C44440062
:10363000384444444444380078444478404040008E
:103640003844444454483400784444785048440052
:103650003C404038040478007C101010101010001A
:1036600044444444444438004444444444281000FE
:1036700044444454545428004444281028444400EA
:1036800044444428101010007C04081020407C00A2
:10369000382020202020380000402010080400009E
:1036A0003808080808083800102844000000000006
:1036B0000000000000007C00201008000000000056
:1036C000000038043C443C004040586444447800C6
:1036D00000003840404438000404344C44443C006A
:1036E000000038447C40380038242070202020001E
:1036F00000003C44443C0438404058644444440086
:103700001000301010103800080018080808483061
:1037100040404850605048003010101010103800E1
:103720000000685454444400000058644444440079
:103730000000384444443800000058646458404055
:103740000000344C4C3404040000586440404000F5
:1037500000003C403804780020207020202418000D
:1037600000004444444C3400000044444428100009
:103770000000444454542800000044281028440009
:1037800000004444443C043800007C0810207C00C5
:1037900010202040202010000010101010101000E9
:1037A0002010100810102000000000205408000015
:1037B0000000000000000000000000000000000009
:1037C0000000001818181818181800001818000021
:1037D0000012362448000000000000000000000035
:1037E000000000242424FE484848FE4848480000C1
:1037F00000001038545450301C1414545438101015
:1038000000000044A4A8A8A8541A2A2A2A440000A8
:1038100000000030484848506EA494888976000023
:1038200000606020C00000000000000000000000F8
:1038300000020408081010101010100808040200FC
:103840000040201010080808080808101020400048
:10385000000000001010D63838D61010000000000C
:103860000000000010101010FE10101010000000DA
:10387000000000000000000000000000606020C0A8
:1038800000000000000000007F00000000000000B9
:103890000000000000000000000000006060000068
:1038A000000001020204040808101020204040001B
:1038B00000000018244242424242424224180000C2
:1038C000000000107010101010101010107C00007C
:1038D0000000003C4242420404081020427E0000E6
:1038E0000000003C42420418040202424438000036
:1038F000000000040C14242444447E04041E000030
:103900000000007E404040586402024244380000FB
:103910000000001C24404058644242422418000029
:103920000000007E42440808101010101010000023
:103930000000003C4242422418244242423C000023
:103940000000001824424242261A020224380000D5
:103950000000000000001818000000001818000007
:1039600000000000000018180000001818083000BF
:10397000000000020408102040201008040200008B
:10398000000000000000FE000000FE00000000003B
:10399000000000402010080402040810204000002D
:1039A0000000003C424262020408080018180000AF
:1039B00000000038445AAAAAAAAAB4424438000017
:1039C0000000001010182828243C444242E7000060
:1039D000000000F8444444784442424244F8000065
:1039E0000000003E424280808080804244380000D7
:1039F000000000F8444242424242424244F8000081
:103A0000000000FE424848784848404242FE00001C
:103A1000000000FE424848784848404040E000002E
:103A20000000003C44448080808E84444438000080
:103A3000000000E7424242427E42424242E700002A
:103A40000000007C1010101010101010107C0000EE
:103A50000000003E0808080808080808080888F060
:103A6000000000EE444850705048484444EE0000C6
:103A7000000000E0404040404040404042FE000026
:103A8000000000EE6C6C6C6C5454545454D600001E
:103A9000000000C7626252524A4A4A4646E20000AB
:103AA0000000003844828282828282824438000090
:103AB000000000FC424242427C40404040E00000A6
:103AC00000000038448282828282B2CA4C380600EA
:103AD000000000F8444444784848444442E300006D
:103AE0000000003E4242402018040242427C000096
:103AF000000000FE9210101010101010103800007E
:103B0000000000E74242424242424242423C000040
:103B1000000000E742424424242828181010000026
:103B2000000000D692929292AAAA6C4444440000EB
:103B3000000000E7422424181818242442E700005B
:103B4000000000EE44442828101010101038000027
:103B50000000007E840408081020204242FC00007F
:103B6000001E1010101010101010101010101E0059
:103B7000000040402020101008040402020201014D
:103B800000780808080808080808080808087800E5
:103B900000081422000000000000000000000000E7
:103BA000000000000000000000000000000000FF16
:103BB0000060100000000000000000000000000095
:103BC000000000000000003C421E2242423F000074
:103BD000000000C040404058644242426458000027
:103BE000000000000000001C22404040221C000099
:103BF000000000060202021E22424242261B000072
:103C0000000000000000003C427E4040423C0000BA
:103C10000000000F1110107E10101010107C00001A
:103C2000000000000000003E444438403C42423C5A
:103C3000000000C04040405C6242424242E7000057
:103C4000000000303000007010101010107C0000D8
:103C50000000000C0C00001C04040404040444785C
:103C6000000000C04040404E4850684844EE00000C
:103C7000000000701010101010101010107C0000C8
:103C800000000000000000F64949494949ED0000E4
:103C900000000000000000DC6242424242E70000F7
:103CA000000000000000003C42424242423C000052
:103CB00000000000000000D864424242645840E026
:103CC000000000000000001E22424242261A0207A5
:103CD00000000000000000EE3220202020F800004C
:103CE000000000000000003E42403C02427C000018
:103CF000000000000010107C10101010100C0000CC
:103D000000000000000000C642424242463B000064
:103D100000000000000000E74224242810100000EA
:103D200000000000000000D79292AAAA44440000BC
:103D3000000000000000006E24181818247600000F
:103D400000000000000000E742242428181010E0C2
:103D5000000000000000007E44081010227E0000D9
:103D60000003040404040408040404040404030019
:103D700008080808080808080808080808080808C3
:103D800000601010101010081010101010106000BB
:103D900000000000000020520C00000000000000A5
:103DA000CEC2000023F81208120883F84208420825
:103DB00013F8100027FCE4A424A424A424A42FFEB8
:103DC0000000B6C8010000803FFE222022203FFCF8
:103DD0002220222023E020002FF02410422041C086
:103DE0008630380ECAAA000027F81408140887F88D
:103DF0004408440817F811202120E92425282330FD
:103E000021202FFE0000A3BA0000000000000000E7
:103E10000000000000000000000030003000000042
:103E20003000300000000000A1E6600091F4960C24
:103E30006C04080418001800180018001800180076
:103E400008000C04060801F00000A3A500001804F7
:103E500024082410242024402480190002600490A7
:103E6000089010902090409000600000C4E3000093
:103E7000000000001400140027E024206940A10085
:103E80002540252025202920210023000000B2BB49
:103E90000000000000000000FFE00200020004003B
:103EA0000D0014802440C42004000400040000001D
:103EB000C4DC00000000000022404A80FB00022019
:103EC00079E048007A004A407A804B204A2059E045
:103ED0000000D7F60000000000002900290049007A
:103EE0005DE0CA4049405D40554055405C805140CE
:103EF00042200000CED20000000000001A007240F4
:103F000012201200FFE0120012401A803100D3206C
:103F100014A030600000B5C40000000000002100C3
:103F20004100F9E08A208C208920F8A088A0882010
:103F30008820F82088C00000CAAB00000000000004
:103F4000810041000FC00100DFE040805FE0408061
:103F500048804480608041800000C8AB00000000C1
:103F6000000000380000300000680000440000C27B
:103F7000000181000300C00600700FFFFE1018084A
:103F800060180000180000180000186003FF80008F
:103F900018000018000018000018081FFFFC00009F
:103FA00000000000B6AF000000000000000180002B
:103FB00001000061003F810000010000010C0007CA
:103FC000FC00310C3FC10C06010C04010C0C8108F3
:103FD0000843081062081022082FF408381408005B
:103FE00008080011180020F8004030000000B5E774
:103FF0000000000000000018000010000010000089
:1040000010000FFFF00810200810200810200810E2
:10401000200FFFE0081020081020081020081020B2
:104020000FFFE00810000010080010080010040046
:10403000180C000FF8000000D7D3000000000000AB
:104040000000200FFFF0000060000080000300006F
:10405000140000180000180000180C7FFFFE001864
:1040600000001800001800001800001800001800D8
:1040700000180000180000180000F80000300000D0
:104080000000BCBC00000004000007018006010025
:1040900006010006010006C10C3F3FF006010006C4
:1040A000010006010006FFF80708103E083026044C
:1040B000200604600602400602C006018006038056
:1040C000060C601E103E0CE00C000000CAF500005B
:1040D00000000000001C000019800018E0001860BB
:1040E00000182800181C3FFFE0003C00007C000086
:1040F0005A0000DA000099000119800318C0061860
:104100006004183808181E301808401800001800FD
:10411000001800000000C8AB000000000000000014
:1041200000030000000380000007800000068000FC
:10413000000C4000001C2000001830000030180067
:1041400000600C0000C00700018003C0030002F8FB
:1041500007FFFF7C08018090300180004001800053
:1041600000018000000181000001838001FFFFC089
:10417000000180000001800000018000000180003B
:104180000001800000018010000180381FFFFFFC4B
:104190000000000000000000B6AF000000000000BA
:1041A00000000000080000000E0000000C00000CE1
:1041B0000C003FFE0C0010000C0000000C00000082
:1041C0000C180000FFFC00020C1800070C183FFF41
:1041D0008C1801C00C1801C00C18018008180300CD
:1041E00008180210181806081818040C10180806E9
:1041F0001018100630102FFB20103E036010100224
:10420000C0300000803000010C30000203E0000CE0
:1042100001E00010008000000000B5E70000000091
:104220000000000000030000000380000003000005
:1042300000030000000300000003000007FFFFC0B0
:10424000060300C0060300C0060300C0060300C04A
:10425000060300C0060300C007FFFFC0060300C03E
:10426000060300C0060300C0060300C0060300C02A
:1042700007FFFFC0060300800603000000030010D4
:104280000003000800030008000300180003801C5E
:104290000001FFF80000000000000000D7D300007C
:1042A00000000000000000000000000000C003FF4C
:1042B000FFE0000001E00000030000000600000035
:1042C0001800000030000001C0000001C000000123
:1042D000800000018010000180383FFFFFFC0001DA
:1042E00080000001800000018000000180000001CA
:1042F00080000001800000018000000180000001BA
:104300008000000180000001800000018000003F6B
:104310008000000700000002000000000000BCBC9C
:1043200000000000000000000180080001C00E0035
:1043300001800C0001800C0001800C0001800C0049
:1043400001980C183FFFFFFC01800C0001800C005D
:1043500001800C0001800C00018C0C2001B3FFF0E7
:1043600001C080600F8080603D8040C0318040C0CF
:1043700001802180018021800180330001801E00A6
:1043800001800C0001801E00018037000180E3C025
:104390001F8380F8078E007C0230000000000000C0
:1043A000CAF500000000000000000001000000014C
:1043B000C00000018C000001870000018380000123
:1043C000818000018080000180303FFFFFF81003F2
:1043D000C0000007C0000007A000000DA000000DF5
:1043E0009000001990000019980000318C000061C5
:1043F000860000C1870000818380018181C00301A4
:1044000080F00401807C0801803810018010600178
:104410008000000180000001800000010000000019
:104420000000000044440008000000203C0D000093
:104430006C010008844800083C0D0020440B00007B
:10444000C80100081184A24A0400091001020304F3
:104450000607080910087FE003911C381812701332
:10446000FFFC101007FFFE6660045B224414018C01
:10447000017FFA1204100E0236C008154080520265
:104480000201BFF610103DB6DA1F8088114080345B
:10449000047101DFEE2E25B6DA0F021012182D88F6
:1044A00001E01E103B060A205B0104202B062A10A7
:1044B00012525A20401D06AA845160115A70603C65
:1044C00006AA83805A2080016414031FFC853FFCE8
:1044D0007FF014073FFE857FFCFFF8140F300612B3
:1044E0006083C018DA1B10DA3310AD633006181081
:1044F0001AC3108B7FFC101A8330A9101A03701195
:104500000A190C101930D9100A1D1810F9400A1A8E
:104510006010D9F014031FFC05583FF87FF014F920
:10452000E30F75F1E01E3C800A010A1510810A10A4
:1045300021421B12111011832140800922111F8179
:104540000BE0217C2A422099307F821110990A13B6
:1045500010780801F9E7CF18F1E360019572FF4583
:10456000411C41413A81C93E7C826322611042F183
:104570008FC682C2554151203FAA80A2497E491070
:1045800042FD9F927C92414045407F028A412143F7
:104590002240A808828286411E411C6001FF518092
:1045A0000903F803FFF803C0F01B0FFE108407F3A4
:1045B000FC1C1803031583FFFE24300183841FFFB6
:1045C000FF12600A20C3109940E91019507D7FC086
:1045D00007FF701E300303FFF08379808F0603808E
:1045E0003801FFA013FC031218837FC01A1F6A1240
:1045F0000C8B3F80501A8010920E12601AC010DA95
:104600000410A10913100A1A101012C68D0C1E38BE
:10461000CC1012C79D1C114532D08E803811452216
:10462000A019BD99101B0FFEBD991051CB1E79101A
:1046300011F240E910012DF2081A14B5A1140180FD
:1046400022A39004BC024042109E06404101084350
:10465000BC04208110AF08208102041010AB8082BE
:10466000101310219B820210132011AA84101340F2
:1046700012A44402201380129B48011011E9101269
:104680000CEA301011027CC0E30780D3FFFEBC03AC
:1046900080039F220CC238190DB2071B01E0049958
:1046A00031420EA2607A180561391BA2044240A271
:1046B00002399D8A015F491079B32A0190217971ED
:1046C00012012A0F0C797112032A1FCF8A3010248D
:1046D0003FFFFF7A10FD117E7FFFFFFFC010120623
:1046E000190F8BFFE0103A03107A20103A0F10795F
:1046F000601A064F7CFFFFF0807808073C3FFFF808
:104700007FF1A03A072092F13A03108AF3101220A9
:1047100012FF8B07F2E08F0FFF7EFFFBE7108F9FEA
:104720007F81FDFC0FF07FBE3F9DF8FDFF10119EC5
:10473000DF7FBCFDFB101E67FE7E7FE3E281A738B2
:1047400001FF800FFE2A1F80DAFC10A2F849E0A1C9
:104750001307FE7B7FFFDF19B112FF9AFF5F119DE8
:1047600001FFC7FF5F21C94F2119F1994F396189B5
:10477000AE3951998E3941B92F011EF202F2072A42
:104780000F6B5D01838061C21C0F80F0256D82E399
:10479000E1B010221C750C6C023F120E320312FEA7
:1047A0005A3FA3120613F1805E0F81F7C07CAD1C47
:1047B000801880B26A80A41501C00C40760218816E
:1047C0008C60CBE184101C7FC240307A81D41B3FC7
:1047D000E220116C31800CA11999B603FFF0FFFCA7
:1047E0001D01FFC07FA701330A100E071401800EC0
:1047F0002A20A92132701907298B1CE03F810A1158
:104800002C61FFF0E94403C0F81207421C121E326B
:104810000F137C1C1C031F80073B07FF071C1FFF97
:104820009F2B2C1C7C032B130FF02A7CB8190A1227
:10483000E01B0FF23B12FE192619EF43803C1B03CD
:10484000801F29582973197C59074A7807591C3940
:104850002A4407803E163F800FE1C01B1FFC541CFA
:10486000FC03FFFD1AFF01412BFFFF5711033B0122
:10487000FC2D0102030404000900060708090204D4
:044880000608000026
:0400000508000131BD
:00000001FF
